{
  "_format": "hh-sol-artifact-1",
  "contractName": "AlphaBearNFT",
  "sourceName": "contracts/AlphaBearNFT.sol",
  "abi": [
    {
      "inputs": [
        {
          "internalType": "string",
          "name": "_name",
          "type": "string"
        },
        {
          "internalType": "string",
          "name": "_symbol",
          "type": "string"
        },
        {
          "internalType": "string",
          "name": "_baseTokenURI",
          "type": "string"
        }
      ],
      "stateMutability": "nonpayable",
      "type": "constructor"
    },
    {
      "anonymous": false,
      "inputs": [
        {
          "indexed": true,
          "internalType": "address",
          "name": "owner",
          "type": "address"
        },
        {
          "indexed": true,
          "internalType": "address",
          "name": "approved",
          "type": "address"
        },
        {
          "indexed": true,
          "internalType": "uint256",
          "name": "tokenId",
          "type": "uint256"
        }
      ],
      "name": "Approval",
      "type": "event"
    },
    {
      "anonymous": false,
      "inputs": [
        {
          "indexed": true,
          "internalType": "address",
          "name": "owner",
          "type": "address"
        },
        {
          "indexed": true,
          "internalType": "address",
          "name": "operator",
          "type": "address"
        },
        {
          "indexed": false,
          "internalType": "bool",
          "name": "approved",
          "type": "bool"
        }
      ],
      "name": "ApprovalForAll",
      "type": "event"
    },
    {
      "anonymous": false,
      "inputs": [
        {
          "indexed": false,
          "internalType": "address",
          "name": "account",
          "type": "address"
        }
      ],
      "name": "Paused",
      "type": "event"
    },
    {
      "anonymous": false,
      "inputs": [
        {
          "indexed": true,
          "internalType": "bytes32",
          "name": "role",
          "type": "bytes32"
        },
        {
          "indexed": true,
          "internalType": "bytes32",
          "name": "previousAdminRole",
          "type": "bytes32"
        },
        {
          "indexed": true,
          "internalType": "bytes32",
          "name": "newAdminRole",
          "type": "bytes32"
        }
      ],
      "name": "RoleAdminChanged",
      "type": "event"
    },
    {
      "anonymous": false,
      "inputs": [
        {
          "indexed": true,
          "internalType": "bytes32",
          "name": "role",
          "type": "bytes32"
        },
        {
          "indexed": true,
          "internalType": "address",
          "name": "account",
          "type": "address"
        },
        {
          "indexed": true,
          "internalType": "address",
          "name": "sender",
          "type": "address"
        }
      ],
      "name": "RoleGranted",
      "type": "event"
    },
    {
      "anonymous": false,
      "inputs": [
        {
          "indexed": true,
          "internalType": "bytes32",
          "name": "role",
          "type": "bytes32"
        },
        {
          "indexed": true,
          "internalType": "address",
          "name": "account",
          "type": "address"
        },
        {
          "indexed": true,
          "internalType": "address",
          "name": "sender",
          "type": "address"
        }
      ],
      "name": "RoleRevoked",
      "type": "event"
    },
    {
      "anonymous": false,
      "inputs": [
        {
          "indexed": true,
          "internalType": "address",
          "name": "from",
          "type": "address"
        },
        {
          "indexed": true,
          "internalType": "address",
          "name": "to",
          "type": "address"
        },
        {
          "indexed": true,
          "internalType": "uint256",
          "name": "tokenId",
          "type": "uint256"
        }
      ],
      "name": "Transfer",
      "type": "event"
    },
    {
      "anonymous": false,
      "inputs": [
        {
          "indexed": false,
          "internalType": "address",
          "name": "account",
          "type": "address"
        }
      ],
      "name": "Unpaused",
      "type": "event"
    },
    {
      "inputs": [],
      "name": "DEFAULT_ADMIN_ROLE",
      "outputs": [
        {
          "internalType": "bytes32",
          "name": "",
          "type": "bytes32"
        }
      ],
      "stateMutability": "view",
      "type": "function"
    },
    {
      "inputs": [],
      "name": "MINTER_ROLE",
      "outputs": [
        {
          "internalType": "bytes32",
          "name": "",
          "type": "bytes32"
        }
      ],
      "stateMutability": "view",
      "type": "function"
    },
    {
      "inputs": [],
      "name": "PAUSER_ROLE",
      "outputs": [
        {
          "internalType": "bytes32",
          "name": "",
          "type": "bytes32"
        }
      ],
      "stateMutability": "view",
      "type": "function"
    },
    {
      "inputs": [
        {
          "internalType": "address",
          "name": "to",
          "type": "address"
        },
        {
          "internalType": "uint256",
          "name": "tokenId",
          "type": "uint256"
        }
      ],
      "name": "approve",
      "outputs": [],
      "stateMutability": "nonpayable",
      "type": "function"
    },
    {
      "inputs": [
        {
          "internalType": "address",
          "name": "owner",
          "type": "address"
        }
      ],
      "name": "balanceOf",
      "outputs": [
        {
          "internalType": "uint256",
          "name": "",
          "type": "uint256"
        }
      ],
      "stateMutability": "view",
      "type": "function"
    },
    {
      "inputs": [
        {
          "internalType": "uint256",
          "name": "tokenId",
          "type": "uint256"
        }
      ],
      "name": "exists",
      "outputs": [
        {
          "internalType": "bool",
          "name": "",
          "type": "bool"
        }
      ],
      "stateMutability": "view",
      "type": "function"
    },
    {
      "inputs": [
        {
          "internalType": "uint256",
          "name": "tokenId",
          "type": "uint256"
        }
      ],
      "name": "getApproved",
      "outputs": [
        {
          "internalType": "address",
          "name": "",
          "type": "address"
        }
      ],
      "stateMutability": "view",
      "type": "function"
    },
    {
      "inputs": [
        {
          "internalType": "bytes32",
          "name": "role",
          "type": "bytes32"
        }
      ],
      "name": "getRoleAdmin",
      "outputs": [
        {
          "internalType": "bytes32",
          "name": "",
          "type": "bytes32"
        }
      ],
      "stateMutability": "view",
      "type": "function"
    },
    {
      "inputs": [
        {
          "internalType": "bytes32",
          "name": "role",
          "type": "bytes32"
        },
        {
          "internalType": "address",
          "name": "account",
          "type": "address"
        }
      ],
      "name": "grantRole",
      "outputs": [],
      "stateMutability": "nonpayable",
      "type": "function"
    },
    {
      "inputs": [
        {
          "internalType": "bytes32",
          "name": "role",
          "type": "bytes32"
        },
        {
          "internalType": "address",
          "name": "account",
          "type": "address"
        }
      ],
      "name": "hasRole",
      "outputs": [
        {
          "internalType": "bool",
          "name": "",
          "type": "bool"
        }
      ],
      "stateMutability": "view",
      "type": "function"
    },
    {
      "inputs": [
        {
          "internalType": "address",
          "name": "owner",
          "type": "address"
        },
        {
          "internalType": "address",
          "name": "operator",
          "type": "address"
        }
      ],
      "name": "isApprovedForAll",
      "outputs": [
        {
          "internalType": "bool",
          "name": "",
          "type": "bool"
        }
      ],
      "stateMutability": "view",
      "type": "function"
    },
    {
      "inputs": [
        {
          "internalType": "address",
          "name": "to",
          "type": "address"
        },
        {
          "internalType": "uint256",
          "name": "_tokenId",
          "type": "uint256"
        }
      ],
      "name": "mint",
      "outputs": [],
      "stateMutability": "nonpayable",
      "type": "function"
    },
    {
      "inputs": [],
      "name": "name",
      "outputs": [
        {
          "internalType": "string",
          "name": "",
          "type": "string"
        }
      ],
      "stateMutability": "view",
      "type": "function"
    },
    {
      "inputs": [
        {
          "internalType": "uint256",
          "name": "tokenId",
          "type": "uint256"
        }
      ],
      "name": "ownerOf",
      "outputs": [
        {
          "internalType": "address",
          "name": "",
          "type": "address"
        }
      ],
      "stateMutability": "view",
      "type": "function"
    },
    {
      "inputs": [],
      "name": "pause",
      "outputs": [],
      "stateMutability": "nonpayable",
      "type": "function"
    },
    {
      "inputs": [],
      "name": "paused",
      "outputs": [
        {
          "internalType": "bool",
          "name": "",
          "type": "bool"
        }
      ],
      "stateMutability": "view",
      "type": "function"
    },
    {
      "inputs": [
        {
          "internalType": "bytes32",
          "name": "role",
          "type": "bytes32"
        },
        {
          "internalType": "address",
          "name": "account",
          "type": "address"
        }
      ],
      "name": "renounceRole",
      "outputs": [],
      "stateMutability": "nonpayable",
      "type": "function"
    },
    {
      "inputs": [
        {
          "internalType": "bytes32",
          "name": "role",
          "type": "bytes32"
        },
        {
          "internalType": "address",
          "name": "account",
          "type": "address"
        }
      ],
      "name": "revokeRole",
      "outputs": [],
      "stateMutability": "nonpayable",
      "type": "function"
    },
    {
      "inputs": [
        {
          "internalType": "address",
          "name": "from",
          "type": "address"
        },
        {
          "internalType": "address",
          "name": "to",
          "type": "address"
        },
        {
          "internalType": "uint256",
          "name": "tokenId",
          "type": "uint256"
        }
      ],
      "name": "safeTransferFrom",
      "outputs": [],
      "stateMutability": "nonpayable",
      "type": "function"
    },
    {
      "inputs": [
        {
          "internalType": "address",
          "name": "from",
          "type": "address"
        },
        {
          "internalType": "address",
          "name": "to",
          "type": "address"
        },
        {
          "internalType": "uint256",
          "name": "tokenId",
          "type": "uint256"
        },
        {
          "internalType": "bytes",
          "name": "_data",
          "type": "bytes"
        }
      ],
      "name": "safeTransferFrom",
      "outputs": [],
      "stateMutability": "nonpayable",
      "type": "function"
    },
    {
      "inputs": [
        {
          "internalType": "address",
          "name": "operator",
          "type": "address"
        },
        {
          "internalType": "bool",
          "name": "approved",
          "type": "bool"
        }
      ],
      "name": "setApprovalForAll",
      "outputs": [],
      "stateMutability": "nonpayable",
      "type": "function"
    },
    {
      "inputs": [
        {
          "internalType": "string",
          "name": "_newURI",
          "type": "string"
        }
      ],
      "name": "setBaseURI",
      "outputs": [],
      "stateMutability": "nonpayable",
      "type": "function"
    },
    {
      "inputs": [
        {
          "internalType": "bytes4",
          "name": "interfaceId",
          "type": "bytes4"
        }
      ],
      "name": "supportsInterface",
      "outputs": [
        {
          "internalType": "bool",
          "name": "",
          "type": "bool"
        }
      ],
      "stateMutability": "view",
      "type": "function"
    },
    {
      "inputs": [],
      "name": "symbol",
      "outputs": [
        {
          "internalType": "string",
          "name": "",
          "type": "string"
        }
      ],
      "stateMutability": "view",
      "type": "function"
    },
    {
      "inputs": [
        {
          "internalType": "uint256",
          "name": "index",
          "type": "uint256"
        }
      ],
      "name": "tokenByIndex",
      "outputs": [
        {
          "internalType": "uint256",
          "name": "",
          "type": "uint256"
        }
      ],
      "stateMutability": "view",
      "type": "function"
    },
    {
      "inputs": [
        {
          "internalType": "address",
          "name": "owner",
          "type": "address"
        },
        {
          "internalType": "uint256",
          "name": "index",
          "type": "uint256"
        }
      ],
      "name": "tokenOfOwnerByIndex",
      "outputs": [
        {
          "internalType": "uint256",
          "name": "",
          "type": "uint256"
        }
      ],
      "stateMutability": "view",
      "type": "function"
    },
    {
      "inputs": [
        {
          "internalType": "uint256",
          "name": "tokenId",
          "type": "uint256"
        }
      ],
      "name": "tokenURI",
      "outputs": [
        {
          "internalType": "string",
          "name": "",
          "type": "string"
        }
      ],
      "stateMutability": "view",
      "type": "function"
    },
    {
      "inputs": [],
      "name": "totalSupply",
      "outputs": [
        {
          "internalType": "uint256",
          "name": "",
          "type": "uint256"
        }
      ],
      "stateMutability": "view",
      "type": "function"
    },
    {
      "inputs": [
        {
          "internalType": "address",
          "name": "from",
          "type": "address"
        },
        {
          "internalType": "address",
          "name": "to",
          "type": "address"
        },
        {
          "internalType": "uint256",
          "name": "tokenId",
          "type": "uint256"
        }
      ],
      "name": "transferFrom",
      "outputs": [],
      "stateMutability": "nonpayable",
      "type": "function"
    },
    {
      "inputs": [],
      "name": "unpause",
      "outputs": [],
      "stateMutability": "nonpayable",
      "type": "function"
    },
    {
      "inputs": [
        {
          "internalType": "address",
          "name": "_owner",
          "type": "address"
        }
      ],
      "name": "viewTokensInWallet",
      "outputs": [
        {
          "internalType": "uint256[]",
          "name": "",
          "type": "uint256[]"
        }
      ],
      "stateMutability": "view",
      "type": "function"
    }
  ],
  "bytecode": "0x60806040523480156200001157600080fd5b506040516200286938038062002869833981016040819052620000349162000305565b8251839083906200004d906000906020850190620001a8565b50805162000063906001906020840190620001a8565b5050600b805460ff191690555080516200008590600c906020840190620001a8565b5062000093600033620000f4565b620000bf7f9f2df0fed2c77648de5860a4cc508cd0818c85b8b8a1ab4ceeef8d981c8956a633620000f4565b620000eb7f65d7a28e3265b37a6474929f336521b332c1681b933f6cb9f3376673440d862a33620000f4565b505050620003e9565b62000100828262000104565b5050565b6000828152600a602090815260408083206001600160a01b038516845290915290205460ff1662000100576000828152600a602090815260408083206001600160a01b03851684529091529020805460ff19166001179055620001643390565b6001600160a01b0316816001600160a01b0316837f2f8788117e7eff1d82e926ec794901d17c78024a50270940304540a733656f0d60405160405180910390a45050565b828054620001b69062000396565b90600052602060002090601f016020900481019282620001da576000855562000225565b82601f10620001f557805160ff191683800117855562000225565b8280016001018555821562000225579182015b828111156200022557825182559160200191906001019062000208565b506200023392915062000237565b5090565b5b8082111562000233576000815560010162000238565b600082601f8301126200026057600080fd5b81516001600160401b03808211156200027d576200027d620003d3565b604051601f8301601f19908116603f01168101908282118183101715620002a857620002a8620003d3565b81604052838152602092508683858801011115620002c557600080fd5b600091505b83821015620002e95785820183015181830184015290820190620002ca565b83821115620002fb5760008385830101525b9695505050505050565b6000806000606084860312156200031b57600080fd5b83516001600160401b03808211156200033357600080fd5b62000341878388016200024e565b945060208601519150808211156200035857600080fd5b62000366878388016200024e565b935060408601519150808211156200037d57600080fd5b506200038c868287016200024e565b9150509250925092565b600181811c90821680620003ab57607f821691505b60208210811415620003cd57634e487b7160e01b600052602260045260246000fd5b50919050565b634e487b7160e01b600052604160045260246000fd5b61247080620003f96000396000f3fe608060405234801561001057600080fd5b50600436106101e55760003560e01c80634f6ccce71161010f578063a217fddf116100a2578063d539139311610071578063d539139314610404578063d547741f1461042b578063e63ab1e91461043e578063e985e9c51461046557600080fd5b8063a217fddf146103c3578063a22cb465146103cb578063b88d4fde146103de578063c87b56dd146103f157600080fd5b806370a08231116100de57806370a082311461038d5780638456cb59146103a057806391d14854146103a857806395d89b41146103bb57600080fd5b80634f6ccce71461034957806355f804b31461035c5780635c975abb1461036f5780636352211e1461037a57600080fd5b80632ec060f4116101875780633f4ba83a116101565780633f4ba83a1461030857806340c10f191461031057806342842e0e146103235780634f558e791461033657600080fd5b80632ec060f4146102af5780632f2ff15d146102cf5780632f745c59146102e257806336568abe146102f557600080fd5b8063095ea7b3116101c3578063095ea7b31461025257806318160ddd1461026757806323b872dd14610279578063248a9ca31461028c57600080fd5b806301ffc9a7146101ea57806306fdde0314610212578063081812fc14610227575b600080fd5b6101fd6101f836600461201a565b6104a1565b60405190151581526020015b60405180910390f35b61021a6104b2565b60405161020991906121ee565b61023a610235366004611fde565b610544565b6040516001600160a01b039091168152602001610209565b610265610260366004611fb4565b6105d1565b005b6008545b604051908152602001610209565b610265610287366004611ec0565b6106e7565b61026b61029a366004611fde565b6000908152600a602052604090206001015490565b6102c26102bd366004611e72565b610718565b60405161020991906121aa565b6102656102dd366004611ff7565b6107ba565b61026b6102f0366004611fb4565b6107e0565b610265610303366004611ff7565b610876565b6102656108f4565b61026561031e366004611fb4565b61098b565b610265610331366004611ec0565b610a75565b6101fd610344366004611fde565b610a90565b61026b610357366004611fde565b610a9b565b61026561036a366004612054565b610b2e565b600b5460ff166101fd565b61023a610388366004611fde565b610ba3565b61026b61039b366004611e72565b610c1a565b610265610ca1565b6101fd6103b6366004611ff7565b610d34565b61021a610d5f565b61026b600081565b6102656103d9366004611f78565b610d6e565b6102656103ec366004611efc565b610d79565b61021a6103ff366004611fde565b610db1565b61026b7f9f2df0fed2c77648de5860a4cc508cd0818c85b8b8a1ab4ceeef8d981c8956a681565b610265610439366004611ff7565b610e7c565b61026b7f65d7a28e3265b37a6474929f336521b332c1681b933f6cb9f3376673440d862a81565b6101fd610473366004611e8d565b6001600160a01b03918216600090815260056020908152604080832093909416825291909152205460ff1690565b60006104ac82610ea2565b92915050565b6060600080546104c190612349565b80601f01602080910402602001604051908101604052809291908181526020018280546104ed90612349565b801561053a5780601f1061050f5761010080835404028352916020019161053a565b820191906000526020600020905b81548152906001019060200180831161051d57829003601f168201915b5050505050905090565b600061054f82610ec7565b6105b55760405162461bcd60e51b815260206004820152602c60248201527f4552433732313a20617070726f76656420717565727920666f72206e6f6e657860448201526b34b9ba32b73a103a37b5b2b760a11b60648201526084015b60405180910390fd5b506000908152600460205260409020546001600160a01b031690565b60006105dc82610ba3565b9050806001600160a01b0316836001600160a01b0316141561064a5760405162461bcd60e51b815260206004820152602160248201527f4552433732313a20617070726f76616c20746f2063757272656e74206f776e656044820152603960f91b60648201526084016105ac565b336001600160a01b038216148061066657506106668133610473565b6106d85760405162461bcd60e51b815260206004820152603860248201527f4552433732313a20617070726f76652063616c6c6572206973206e6f74206f7760448201527f6e6572206e6f7220617070726f76656420666f7220616c6c000000000000000060648201526084016105ac565b6106e28383610ee4565b505050565b6106f13382610f52565b61070d5760405162461bcd60e51b81526004016105ac90612253565b6106e283838361103c565b6060600061072583610c1a565b905060008167ffffffffffffffff8111156107425761074261240b565b60405190808252806020026020018201604052801561076b578160200160208202803683370190505b50905060005b828110156107b25761078385826107e0565b828281518110610795576107956123f5565b6020908102919091010152806107aa81612384565b915050610771565b509392505050565b6000828152600a60205260409020600101546107d681336111e3565b6106e28383611247565b60006107eb83610c1a565b821061084d5760405162461bcd60e51b815260206004820152602b60248201527f455243373231456e756d657261626c653a206f776e657220696e646578206f7560448201526a74206f6620626f756e647360a81b60648201526084016105ac565b506001600160a01b03919091166000908152600660209081526040808320938352929052205490565b6001600160a01b03811633146108e65760405162461bcd60e51b815260206004820152602f60248201527f416363657373436f6e74726f6c3a2063616e206f6e6c792072656e6f756e636560448201526e103937b632b9903337b91039b2b63360891b60648201526084016105ac565b6108f082826112cd565b5050565b61091e7f65d7a28e3265b37a6474929f336521b332c1681b933f6cb9f3376673440d862a33610d34565b6109815760405162461bcd60e51b815260206004820152602e60248201527f416c706861426561724e46543a206d757374206861766520706175736572207260448201526d6f6c6520746f20756e706175736560901b60648201526084016105ac565b610989611334565b565b6109b57f9f2df0fed2c77648de5860a4cc508cd0818c85b8b8a1ab4ceeef8d981c8956a633610d34565b610a155760405162461bcd60e51b815260206004820152602b60248201527f416c706861426561724e46543a206d7573742068617665206d696e746572207260448201526a1bdb19481d1bc81b5a5b9d60aa1b60648201526084016105ac565b610a1e81610ec7565b15610a6b5760405162461bcd60e51b815260206004820152601b60248201527f43616e6e6f74206d696e74206578697374656420746f6b656e4964000000000060448201526064016105ac565b6108f082826113c7565b6106e283838360405180602001604052806000815250610d79565b60006104ac82610ec7565b6000610aa660085490565b8210610b095760405162461bcd60e51b815260206004820152602c60248201527f455243373231456e756d657261626c653a20676c6f62616c20696e646578206f60448201526b7574206f6620626f756e647360a01b60648201526084016105ac565b60088281548110610b1c57610b1c6123f5565b90600052602060002001549050919050565b610b39600033610d34565b610b905760405162461bcd60e51b815260206004820152602260248201527f416c706861426561724e46543a206d75737420686176652061646d696e20726f6044820152616c6560f01b60648201526084016105ac565b80516108f090600c906020840190611d47565b6000818152600260205260408120546001600160a01b0316806104ac5760405162461bcd60e51b815260206004820152602960248201527f4552433732313a206f776e657220717565727920666f72206e6f6e657869737460448201526832b73a103a37b5b2b760b91b60648201526084016105ac565b60006001600160a01b038216610c855760405162461bcd60e51b815260206004820152602a60248201527f4552433732313a2062616c616e636520717565727920666f7220746865207a65604482015269726f206164647265737360b01b60648201526084016105ac565b506001600160a01b031660009081526003602052604090205490565b610ccb7f65d7a28e3265b37a6474929f336521b332c1681b933f6cb9f3376673440d862a33610d34565b610d2c5760405162461bcd60e51b815260206004820152602c60248201527f416c706861426561724e46543a206d757374206861766520706175736572207260448201526b6f6c6520746f20706175736560a01b60648201526084016105ac565b610989611506565b6000918252600a602090815260408084206001600160a01b0393909316845291905290205460ff1690565b6060600180546104c190612349565b6108f0338383611581565b610d833383610f52565b610d9f5760405162461bcd60e51b81526004016105ac90612253565b610dab84848484611650565b50505050565b6060610dbc82610ec7565b610e205760405162461bcd60e51b815260206004820152602f60248201527f4552433732314d657461646174613a2055524920717565727920666f72206e6f60448201526e3732bc34b9ba32b73a103a37b5b2b760891b60648201526084016105ac565b6000610e2a611683565b90506000815111610e4a5760405180602001604052806000815250610e75565b80610e5484611692565b604051602001610e659291906120c9565b6040516020818303038152906040525b9392505050565b6000828152600a6020526040902060010154610e9881336111e3565b6106e283836112cd565b60006001600160e01b03198216637965db0b60e01b14806104ac57506104ac82611790565b6000908152600260205260409020546001600160a01b0316151590565b600081815260046020526040902080546001600160a01b0319166001600160a01b0384169081179091558190610f1982610ba3565b6001600160a01b03167f8c5be1e5ebec7d5bd14f71427d1e84f3dd0314c0f7b2291e5b200ac8c7c3b92560405160405180910390a45050565b6000610f5d82610ec7565b610fbe5760405162461bcd60e51b815260206004820152602c60248201527f4552433732313a206f70657261746f7220717565727920666f72206e6f6e657860448201526b34b9ba32b73a103a37b5b2b760a11b60648201526084016105ac565b6000610fc983610ba3565b9050806001600160a01b0316846001600160a01b031614806110045750836001600160a01b0316610ff984610544565b6001600160a01b0316145b8061103457506001600160a01b0380821660009081526005602090815260408083209388168352929052205460ff165b949350505050565b826001600160a01b031661104f82610ba3565b6001600160a01b0316146110b35760405162461bcd60e51b815260206004820152602560248201527f4552433732313a207472616e736665722066726f6d20696e636f72726563742060448201526437bbb732b960d91b60648201526084016105ac565b6001600160a01b0382166111155760405162461bcd60e51b8152602060048201526024808201527f4552433732313a207472616e7366657220746f20746865207a65726f206164646044820152637265737360e01b60648201526084016105ac565b6111208383836117b5565b61112b600082610ee4565b6001600160a01b03831660009081526003602052604081208054600192906111549084906122ef565b90915550506001600160a01b03821660009081526003602052604081208054600192906111829084906122a4565b909155505060008181526002602052604080822080546001600160a01b0319166001600160a01b0386811691821790925591518493918716917fddf252ad1be2c89b69c2b068fc378daa952ba7f163c4a11628f55a4df523b3ef91a4505050565b6111ed8282610d34565b6108f057611205816001600160a01b03166014611806565b611210836020611806565b6040516020016112219291906120f8565b60408051601f198184030181529082905262461bcd60e51b82526105ac916004016121ee565b6112518282610d34565b6108f0576000828152600a602090815260408083206001600160a01b03851684529091529020805460ff191660011790556112893390565b6001600160a01b0316816001600160a01b0316837f2f8788117e7eff1d82e926ec794901d17c78024a50270940304540a733656f0d60405160405180910390a45050565b6112d78282610d34565b156108f0576000828152600a602090815260408083206001600160a01b0385168085529252808320805460ff1916905551339285917ff6391f5c32d9c69d2a47ea670b442974b53935d1edc7fd64eb21e047a839171b9190a45050565b600b5460ff1661137d5760405162461bcd60e51b815260206004820152601460248201527314185d5cd8589b194e881b9bdd081c185d5cd95960621b60448201526064016105ac565b600b805460ff191690557f5db9ee0a495bf2e6ff9c91a7834c1ba4fdd244a5e8aa4e537bd38aeae4b073aa335b6040516001600160a01b03909116815260200160405180910390a1565b6001600160a01b03821661141d5760405162461bcd60e51b815260206004820181905260248201527f4552433732313a206d696e7420746f20746865207a65726f206164647265737360448201526064016105ac565b61142681610ec7565b156114735760405162461bcd60e51b815260206004820152601c60248201527f4552433732313a20746f6b656e20616c7265616479206d696e7465640000000060448201526064016105ac565b61147f600083836117b5565b6001600160a01b03821660009081526003602052604081208054600192906114a89084906122a4565b909155505060008181526002602052604080822080546001600160a01b0319166001600160a01b03861690811790915590518392907fddf252ad1be2c89b69c2b068fc378daa952ba7f163c4a11628f55a4df523b3ef908290a45050565b600b5460ff161561154c5760405162461bcd60e51b815260206004820152601060248201526f14185d5cd8589b194e881c185d5cd95960821b60448201526064016105ac565b600b805460ff191660011790557f62e78cea01bee320cd4e420270b5ea74000d11b0c9f74754ebdbfc544b05a2586113aa3390565b816001600160a01b0316836001600160a01b031614156115e35760405162461bcd60e51b815260206004820152601960248201527f4552433732313a20617070726f766520746f2063616c6c65720000000000000060448201526064016105ac565b6001600160a01b03838116600081815260056020908152604080832094871680845294825291829020805460ff191686151590811790915591519182527f17307eab39ab6107e8899845ad3d59bd9653f200f220920489ca2b5937696c31910160405180910390a3505050565b61165b84848461103c565b611667848484846119a2565b610dab5760405162461bcd60e51b81526004016105ac90612201565b6060600c80546104c190612349565b6060816116b65750506040805180820190915260018152600360fc1b602082015290565b8160005b81156116e057806116ca81612384565b91506116d99050600a836122bc565b91506116ba565b60008167ffffffffffffffff8111156116fb576116fb61240b565b6040519080825280601f01601f191660200182016040528015611725576020820181803683370190505b5090505b84156110345761173a6001836122ef565b9150611747600a8661239f565b6117529060306122a4565b60f81b818381518110611767576117676123f5565b60200101906001600160f81b031916908160001a905350611789600a866122bc565b9450611729565b60006001600160e01b0319821663780e9d6360e01b14806104ac57506104ac82611aaf565b600b5460ff16156117fb5760405162461bcd60e51b815260206004820152601060248201526f14185d5cd8589b194e881c185d5cd95960821b60448201526064016105ac565b6106e2838383611aff565b606060006118158360026122d0565b6118209060026122a4565b67ffffffffffffffff8111156118385761183861240b565b6040519080825280601f01601f191660200182016040528015611862576020820181803683370190505b509050600360fc1b8160008151811061187d5761187d6123f5565b60200101906001600160f81b031916908160001a905350600f60fb1b816001815181106118ac576118ac6123f5565b60200101906001600160f81b031916908160001a90535060006118d08460026122d0565b6118db9060016122a4565b90505b6001811115611953576f181899199a1a9b1b9c1cb0b131b232b360811b85600f166010811061190f5761190f6123f5565b1a60f81b828281518110611925576119256123f5565b60200101906001600160f81b031916908160001a90535060049490941c9361194c81612332565b90506118de565b508315610e755760405162461bcd60e51b815260206004820181905260248201527f537472696e67733a20686578206c656e67746820696e73756666696369656e7460448201526064016105ac565b60006001600160a01b0384163b15611aa457604051630a85bd0160e11b81526001600160a01b0385169063150b7a02906119e690339089908890889060040161216d565b602060405180830381600087803b158015611a0057600080fd5b505af1925050508015611a30575060408051601f3d908101601f19168201909252611a2d91810190612037565b60015b611a8a573d808015611a5e576040519150601f19603f3d011682016040523d82523d6000602084013e611a63565b606091505b508051611a825760405162461bcd60e51b81526004016105ac90612201565b805181602001fd5b6001600160e01b031916630a85bd0160e11b149050611034565b506001949350505050565b60006001600160e01b031982166380ac58cd60e01b1480611ae057506001600160e01b03198216635b5e139f60e01b145b806104ac57506301ffc9a760e01b6001600160e01b03198316146104ac565b6001600160a01b038316611b5a57611b5581600880546000838152600960205260408120829055600182018355919091527ff3f7a9fe364faab93b216da50a3214154f22a0a2b415b23a84c8169e8b636ee30155565b611b7d565b816001600160a01b0316836001600160a01b031614611b7d57611b7d8382611bb7565b6001600160a01b038216611b94576106e281611c54565b826001600160a01b0316826001600160a01b0316146106e2576106e28282611d03565b60006001611bc484610c1a565b611bce91906122ef565b600083815260076020526040902054909150808214611c21576001600160a01b03841660009081526006602090815260408083208584528252808320548484528184208190558352600790915290208190555b5060009182526007602090815260408084208490556001600160a01b039094168352600681528383209183525290812055565b600854600090611c66906001906122ef565b60008381526009602052604081205460088054939450909284908110611c8e57611c8e6123f5565b906000526020600020015490508060088381548110611caf57611caf6123f5565b6000918252602080832090910192909255828152600990915260408082208490558582528120556008805480611ce757611ce76123df565b6001900381819060005260206000200160009055905550505050565b6000611d0e83610c1a565b6001600160a01b039093166000908152600660209081526040808320868452825280832085905593825260079052919091209190915550565b828054611d5390612349565b90600052602060002090601f016020900481019282611d755760008555611dbb565b82601f10611d8e57805160ff1916838001178555611dbb565b82800160010185558215611dbb579182015b82811115611dbb578251825591602001919060010190611da0565b50611dc7929150611dcb565b5090565b5b80821115611dc75760008155600101611dcc565b600067ffffffffffffffff80841115611dfb57611dfb61240b565b604051601f8501601f19908116603f01168101908282118183101715611e2357611e2361240b565b81604052809350858152868686011115611e3c57600080fd5b858560208301376000602087830101525050509392505050565b80356001600160a01b0381168114611e6d57600080fd5b919050565b600060208284031215611e8457600080fd5b610e7582611e56565b60008060408385031215611ea057600080fd5b611ea983611e56565b9150611eb760208401611e56565b90509250929050565b600080600060608486031215611ed557600080fd5b611ede84611e56565b9250611eec60208501611e56565b9150604084013590509250925092565b60008060008060808587031215611f1257600080fd5b611f1b85611e56565b9350611f2960208601611e56565b925060408501359150606085013567ffffffffffffffff811115611f4c57600080fd5b8501601f81018713611f5d57600080fd5b611f6c87823560208401611de0565b91505092959194509250565b60008060408385031215611f8b57600080fd5b611f9483611e56565b915060208301358015158114611fa957600080fd5b809150509250929050565b60008060408385031215611fc757600080fd5b611fd083611e56565b946020939093013593505050565b600060208284031215611ff057600080fd5b5035919050565b6000806040838503121561200a57600080fd5b82359150611eb760208401611e56565b60006020828403121561202c57600080fd5b8135610e7581612421565b60006020828403121561204957600080fd5b8151610e7581612421565b60006020828403121561206657600080fd5b813567ffffffffffffffff81111561207d57600080fd5b8201601f8101841361208e57600080fd5b61103484823560208401611de0565b600081518084526120b5816020860160208601612306565b601f01601f19169290920160200192915050565b600083516120db818460208801612306565b8351908301906120ef818360208801612306565b01949350505050565b7f416363657373436f6e74726f6c3a206163636f756e7420000000000000000000815260008351612130816017850160208801612306565b7001034b99036b4b9b9b4b733903937b6329607d1b6017918401918201528351612161816028840160208801612306565b01602801949350505050565b6001600160a01b03858116825284166020820152604081018390526080606082018190526000906121a09083018461209d565b9695505050505050565b6020808252825182820181905260009190848201906040850190845b818110156121e2578351835292840192918401916001016121c6565b50909695505050505050565b602081526000610e75602083018461209d565b60208082526032908201527f4552433732313a207472616e7366657220746f206e6f6e20455243373231526560408201527131b2b4bb32b91034b6b83632b6b2b73a32b960711b606082015260800190565b60208082526031908201527f4552433732313a207472616e736665722063616c6c6572206973206e6f74206f6040820152701ddb995c881b9bdc88185c1c1c9bdd9959607a1b606082015260800190565b600082198211156122b7576122b76123b3565b500190565b6000826122cb576122cb6123c9565b500490565b60008160001904831182151516156122ea576122ea6123b3565b500290565b600082821015612301576123016123b3565b500390565b60005b83811015612321578181015183820152602001612309565b83811115610dab5750506000910152565b600081612341576123416123b3565b506000190190565b600181811c9082168061235d57607f821691505b6020821081141561237e57634e487b7160e01b600052602260045260246000fd5b50919050565b6000600019821415612398576123986123b3565b5060010190565b6000826123ae576123ae6123c9565b500690565b634e487b7160e01b600052601160045260246000fd5b634e487b7160e01b600052601260045260246000fd5b634e487b7160e01b600052603160045260246000fd5b634e487b7160e01b600052603260045260246000fd5b634e487b7160e01b600052604160045260246000fd5b6001600160e01b03198116811461243757600080fd5b5056fea264697066735822122016460fdfb776b4303cdf3df3cadee5208a73bb6661dc90057d7aa5e6b0e61d1564736f6c63430008060033",
  "linkReferences": {},
  "deployedLinkReferences": {}
}