{
  "_format": "hh-sol-artifact-1",
  "contractName": "BearAdmin",
  "sourceName": "contracts/BearAdmin.sol",
  "abi": [
    {
      "anonymous": false,
      "inputs": [
        {
          "indexed": false,
          "internalType": "address",
          "name": "user",
          "type": "address"
        },
        {
          "indexed": false,
          "internalType": "uint32",
          "name": "quantity",
          "type": "uint32"
        },
        {
          "indexed": false,
          "internalType": "uint256",
          "name": "discount",
          "type": "uint256"
        },
        {
          "indexed": false,
          "internalType": "uint256",
          "name": "subtotal",
          "type": "uint256"
        }
      ],
      "name": "BuyBear",
      "type": "event"
    },
    {
      "anonymous": false,
      "inputs": [
        {
          "indexed": false,
          "internalType": "address",
          "name": "user",
          "type": "address"
        },
        {
          "indexed": false,
          "internalType": "uint256",
          "name": "box",
          "type": "uint256"
        },
        {
          "indexed": false,
          "internalType": "uint32",
          "name": "quantity",
          "type": "uint32"
        },
        {
          "indexed": false,
          "internalType": "string",
          "name": "voucher",
          "type": "string"
        },
        {
          "indexed": false,
          "internalType": "uint256",
          "name": "discount",
          "type": "uint256"
        },
        {
          "indexed": false,
          "internalType": "uint256",
          "name": "subtotal",
          "type": "uint256"
        }
      ],
      "name": "BuyBox",
      "type": "event"
    },
    {
      "anonymous": false,
      "inputs": [
        {
          "indexed": false,
          "internalType": "address",
          "name": "user",
          "type": "address"
        }
      ],
      "name": "BuyTeam",
      "type": "event"
    },
    {
      "anonymous": false,
      "inputs": [
        {
          "indexed": false,
          "internalType": "address",
          "name": "user",
          "type": "address"
        },
        {
          "indexed": false,
          "internalType": "uint32",
          "name": "quantity",
          "type": "uint32"
        }
      ],
      "name": "BuyTicket",
      "type": "event"
    },
    {
      "anonymous": false,
      "inputs": [
        {
          "indexed": false,
          "internalType": "address",
          "name": "user",
          "type": "address"
        },
        {
          "indexed": false,
          "internalType": "uint256",
          "name": "tokenId",
          "type": "uint256"
        }
      ],
      "name": "Claim",
      "type": "event"
    },
    {
      "anonymous": false,
      "inputs": [
        {
          "indexed": false,
          "internalType": "address",
          "name": "user",
          "type": "address"
        },
        {
          "indexed": false,
          "internalType": "string",
          "name": "claimId",
          "type": "string"
        }
      ],
      "name": "ClaimLottery",
      "type": "event"
    },
    {
      "anonymous": false,
      "inputs": [
        {
          "indexed": false,
          "internalType": "address",
          "name": "user",
          "type": "address"
        },
        {
          "indexed": false,
          "internalType": "uint256",
          "name": "tokenId",
          "type": "uint256"
        }
      ],
      "name": "Deposit",
      "type": "event"
    },
    {
      "anonymous": false,
      "inputs": [
        {
          "indexed": true,
          "internalType": "address",
          "name": "previousOwner",
          "type": "address"
        },
        {
          "indexed": true,
          "internalType": "address",
          "name": "newOwner",
          "type": "address"
        }
      ],
      "name": "OwnershipTransferred",
      "type": "event"
    },
    {
      "anonymous": false,
      "inputs": [
        {
          "indexed": false,
          "internalType": "address",
          "name": "user",
          "type": "address"
        },
        {
          "indexed": false,
          "internalType": "string",
          "name": "bearOneId",
          "type": "string"
        },
        {
          "indexed": false,
          "internalType": "string",
          "name": "bearTwoId",
          "type": "string"
        },
        {
          "indexed": false,
          "internalType": "uint32",
          "name": "useInsurance",
          "type": "uint32"
        },
        {
          "indexed": false,
          "internalType": "uint256",
          "name": "fee",
          "type": "uint256"
        }
      ],
      "name": "UpgradeBear",
      "type": "event"
    },
    {
      "anonymous": false,
      "inputs": [
        {
          "indexed": false,
          "internalType": "address",
          "name": "user",
          "type": "address"
        },
        {
          "indexed": false,
          "internalType": "uint256",
          "name": "round",
          "type": "uint256"
        },
        {
          "indexed": false,
          "internalType": "uint256",
          "name": "amount",
          "type": "uint256"
        }
      ],
      "name": "Vesting",
      "type": "event"
    },
    {
      "inputs": [],
      "name": "bear",
      "outputs": [
        {
          "internalType": "address",
          "name": "",
          "type": "address"
        }
      ],
      "stateMutability": "view",
      "type": "function"
    },
    {
      "inputs": [
        {
          "internalType": "uint256",
          "name": "",
          "type": "uint256"
        }
      ],
      "name": "boxDiscounts",
      "outputs": [
        {
          "internalType": "uint256",
          "name": "",
          "type": "uint256"
        }
      ],
      "stateMutability": "view",
      "type": "function"
    },
    {
      "inputs": [],
      "name": "boxPrice",
      "outputs": [
        {
          "internalType": "uint256",
          "name": "",
          "type": "uint256"
        }
      ],
      "stateMutability": "view",
      "type": "function"
    },
    {
      "inputs": [
        {
          "internalType": "uint256",
          "name": "",
          "type": "uint256"
        }
      ],
      "name": "boxPrices",
      "outputs": [
        {
          "internalType": "uint256",
          "name": "",
          "type": "uint256"
        }
      ],
      "stateMutability": "view",
      "type": "function"
    },
    {
      "inputs": [
        {
          "internalType": "string",
          "name": "",
          "type": "string"
        }
      ],
      "name": "burnedBears",
      "outputs": [
        {
          "internalType": "bool",
          "name": "",
          "type": "bool"
        }
      ],
      "stateMutability": "view",
      "type": "function"
    },
    {
      "inputs": [
        {
          "internalType": "uint256",
          "name": "_box",
          "type": "uint256"
        },
        {
          "internalType": "uint32",
          "name": "_quantity",
          "type": "uint32"
        },
        {
          "internalType": "string",
          "name": "_voucher",
          "type": "string"
        }
      ],
      "name": "buyBox",
      "outputs": [],
      "stateMutability": "payable",
      "type": "function"
    },
    {
      "inputs": [],
      "name": "buyTeam",
      "outputs": [],
      "stateMutability": "payable",
      "type": "function"
    },
    {
      "inputs": [
        {
          "internalType": "uint32",
          "name": "_quantity",
          "type": "uint32"
        }
      ],
      "name": "buyTicket",
      "outputs": [],
      "stateMutability": "payable",
      "type": "function"
    },
    {
      "inputs": [
        {
          "internalType": "uint32",
          "name": "_quantity",
          "type": "uint32"
        }
      ],
      "name": "checkPrice",
      "outputs": [
        {
          "internalType": "uint256",
          "name": "",
          "type": "uint256"
        }
      ],
      "stateMutability": "view",
      "type": "function"
    },
    {
      "inputs": [
        {
          "internalType": "string",
          "name": "_voucher",
          "type": "string"
        }
      ],
      "name": "checkVoucher",
      "outputs": [
        {
          "internalType": "uint256[]",
          "name": "",
          "type": "uint256[]"
        }
      ],
      "stateMutability": "view",
      "type": "function"
    },
    {
      "inputs": [
        {
          "internalType": "uint256",
          "name": "_tokenId",
          "type": "uint256"
        },
        {
          "internalType": "uint256",
          "name": "_timestamp",
          "type": "uint256"
        },
        {
          "internalType": "bytes32",
          "name": "_messageHash",
          "type": "bytes32"
        }
      ],
      "name": "claim",
      "outputs": [],
      "stateMutability": "payable",
      "type": "function"
    },
    {
      "inputs": [
        {
          "internalType": "string",
          "name": "_claimId",
          "type": "string"
        },
        {
          "internalType": "uint256",
          "name": "_coin",
          "type": "uint256"
        },
        {
          "internalType": "uint256",
          "name": "_amount",
          "type": "uint256"
        },
        {
          "internalType": "uint256",
          "name": "_timestamp",
          "type": "uint256"
        },
        {
          "internalType": "bytes32",
          "name": "_messageHash",
          "type": "bytes32"
        }
      ],
      "name": "claimCoin",
      "outputs": [],
      "stateMutability": "payable",
      "type": "function"
    },
    {
      "inputs": [],
      "name": "claimFee",
      "outputs": [
        {
          "internalType": "uint256",
          "name": "",
          "type": "uint256"
        }
      ],
      "stateMutability": "view",
      "type": "function"
    },
    {
      "inputs": [
        {
          "internalType": "address",
          "name": "",
          "type": "address"
        },
        {
          "internalType": "uint256",
          "name": "",
          "type": "uint256"
        }
      ],
      "name": "claimMap",
      "outputs": [
        {
          "internalType": "bool",
          "name": "",
          "type": "bool"
        }
      ],
      "stateMutability": "view",
      "type": "function"
    },
    {
      "inputs": [
        {
          "internalType": "address",
          "name": "",
          "type": "address"
        },
        {
          "internalType": "uint256",
          "name": "",
          "type": "uint256"
        }
      ],
      "name": "claimPerDay",
      "outputs": [
        {
          "internalType": "uint256",
          "name": "",
          "type": "uint256"
        }
      ],
      "stateMutability": "view",
      "type": "function"
    },
    {
      "inputs": [
        {
          "internalType": "string",
          "name": "_claimId",
          "type": "string"
        }
      ],
      "name": "claimToken",
      "outputs": [],
      "stateMutability": "payable",
      "type": "function"
    },
    {
      "inputs": [
        {
          "internalType": "string",
          "name": "",
          "type": "string"
        }
      ],
      "name": "claimTokenMap",
      "outputs": [
        {
          "internalType": "bool",
          "name": "",
          "type": "bool"
        }
      ],
      "stateMutability": "view",
      "type": "function"
    },
    {
      "inputs": [
        {
          "internalType": "address",
          "name": "user",
          "type": "address"
        }
      ],
      "name": "clearClaim",
      "outputs": [],
      "stateMutability": "nonpayable",
      "type": "function"
    },
    {
      "inputs": [
        {
          "internalType": "uint256",
          "name": "_tokenId",
          "type": "uint256"
        }
      ],
      "name": "deposit",
      "outputs": [],
      "stateMutability": "payable",
      "type": "function"
    },
    {
      "inputs": [],
      "name": "depositFee",
      "outputs": [
        {
          "internalType": "uint256",
          "name": "",
          "type": "uint256"
        }
      ],
      "stateMutability": "view",
      "type": "function"
    },
    {
      "inputs": [
        {
          "internalType": "address",
          "name": "_seller",
          "type": "address"
        },
        {
          "internalType": "uint256",
          "name": "_amount",
          "type": "uint256"
        }
      ],
      "name": "disperseSeller",
      "outputs": [],
      "stateMutability": "nonpayable",
      "type": "function"
    },
    {
      "inputs": [],
      "name": "endTime",
      "outputs": [
        {
          "internalType": "uint256",
          "name": "",
          "type": "uint256"
        }
      ],
      "stateMutability": "view",
      "type": "function"
    },
    {
      "inputs": [
        {
          "internalType": "uint256",
          "name": "_startTime",
          "type": "uint256"
        },
        {
          "internalType": "uint256",
          "name": "_endTime",
          "type": "uint256"
        },
        {
          "internalType": "uint32",
          "name": "_total",
          "type": "uint32"
        },
        {
          "internalType": "uint256",
          "name": "_price",
          "type": "uint256"
        },
        {
          "internalType": "address",
          "name": "_token",
          "type": "address"
        }
      ],
      "name": "initialize",
      "outputs": [],
      "stateMutability": "nonpayable",
      "type": "function"
    },
    {
      "inputs": [],
      "name": "limitClaim",
      "outputs": [
        {
          "internalType": "uint256",
          "name": "",
          "type": "uint256"
        }
      ],
      "stateMutability": "view",
      "type": "function"
    },
    {
      "inputs": [
        {
          "internalType": "uint32",
          "name": "_quantity",
          "type": "uint32"
        }
      ],
      "name": "mint",
      "outputs": [],
      "stateMutability": "payable",
      "type": "function"
    },
    {
      "inputs": [
        {
          "internalType": "address",
          "name": "",
          "type": "address"
        },
        {
          "internalType": "address",
          "name": "",
          "type": "address"
        },
        {
          "internalType": "uint256",
          "name": "",
          "type": "uint256"
        },
        {
          "internalType": "bytes",
          "name": "",
          "type": "bytes"
        }
      ],
      "name": "onERC721Received",
      "outputs": [
        {
          "internalType": "bytes4",
          "name": "",
          "type": "bytes4"
        }
      ],
      "stateMutability": "pure",
      "type": "function"
    },
    {
      "inputs": [],
      "name": "owner",
      "outputs": [
        {
          "internalType": "address",
          "name": "",
          "type": "address"
        }
      ],
      "stateMutability": "view",
      "type": "function"
    },
    {
      "inputs": [],
      "name": "price",
      "outputs": [
        {
          "internalType": "uint256",
          "name": "",
          "type": "uint256"
        }
      ],
      "stateMutability": "view",
      "type": "function"
    },
    {
      "inputs": [],
      "name": "renounceOwnership",
      "outputs": [],
      "stateMutability": "nonpayable",
      "type": "function"
    },
    {
      "inputs": [
        {
          "internalType": "uint256",
          "name": "",
          "type": "uint256"
        }
      ],
      "name": "rounds",
      "outputs": [
        {
          "internalType": "uint256",
          "name": "",
          "type": "uint256"
        }
      ],
      "stateMutability": "view",
      "type": "function"
    },
    {
      "inputs": [
        {
          "internalType": "address",
          "name": "_bear",
          "type": "address"
        }
      ],
      "name": "setBear",
      "outputs": [],
      "stateMutability": "nonpayable",
      "type": "function"
    },
    {
      "inputs": [
        {
          "internalType": "uint256[]",
          "name": "_boxPrices",
          "type": "uint256[]"
        },
        {
          "internalType": "uint256[]",
          "name": "_boxDiscount",
          "type": "uint256[]"
        }
      ],
      "name": "setBoxPrices",
      "outputs": [],
      "stateMutability": "nonpayable",
      "type": "function"
    },
    {
      "inputs": [
        {
          "internalType": "uint256",
          "name": "_claimFee",
          "type": "uint256"
        }
      ],
      "name": "setClaimFee",
      "outputs": [],
      "stateMutability": "nonpayable",
      "type": "function"
    },
    {
      "inputs": [
        {
          "internalType": "uint256",
          "name": "_depositFee",
          "type": "uint256"
        }
      ],
      "name": "setDepositFee",
      "outputs": [],
      "stateMutability": "nonpayable",
      "type": "function"
    },
    {
      "inputs": [
        {
          "internalType": "uint256",
          "name": "_limitClaim",
          "type": "uint256"
        }
      ],
      "name": "setLimitClaim",
      "outputs": [],
      "stateMutability": "nonpayable",
      "type": "function"
    },
    {
      "inputs": [
        {
          "internalType": "uint256",
          "name": "_price",
          "type": "uint256"
        }
      ],
      "name": "setPrice",
      "outputs": [],
      "stateMutability": "nonpayable",
      "type": "function"
    },
    {
      "inputs": [
        {
          "internalType": "address[]",
          "name": "_sellers",
          "type": "address[]"
        }
      ],
      "name": "setSellers",
      "outputs": [],
      "stateMutability": "nonpayable",
      "type": "function"
    },
    {
      "inputs": [
        {
          "internalType": "uint256[]",
          "name": "_rounds",
          "type": "uint256[]"
        },
        {
          "internalType": "address",
          "name": "_vestingWallet",
          "type": "address"
        },
        {
          "internalType": "address",
          "name": "_vestingToken",
          "type": "address"
        }
      ],
      "name": "setVesting",
      "outputs": [],
      "stateMutability": "nonpayable",
      "type": "function"
    },
    {
      "inputs": [
        {
          "internalType": "string[]",
          "name": "_vouchers",
          "type": "string[]"
        },
        {
          "internalType": "uint256",
          "name": "_value",
          "type": "uint256"
        }
      ],
      "name": "setVouchers",
      "outputs": [],
      "stateMutability": "nonpayable",
      "type": "function"
    },
    {
      "inputs": [],
      "name": "sold",
      "outputs": [
        {
          "internalType": "uint32",
          "name": "",
          "type": "uint32"
        }
      ],
      "stateMutability": "view",
      "type": "function"
    },
    {
      "inputs": [],
      "name": "startTime",
      "outputs": [
        {
          "internalType": "uint256",
          "name": "",
          "type": "uint256"
        }
      ],
      "stateMutability": "view",
      "type": "function"
    },
    {
      "inputs": [],
      "name": "token",
      "outputs": [
        {
          "internalType": "address",
          "name": "",
          "type": "address"
        }
      ],
      "stateMutability": "view",
      "type": "function"
    },
    {
      "inputs": [
        {
          "internalType": "uint256",
          "name": "",
          "type": "uint256"
        }
      ],
      "name": "tokens",
      "outputs": [
        {
          "internalType": "address",
          "name": "",
          "type": "address"
        }
      ],
      "stateMutability": "view",
      "type": "function"
    },
    {
      "inputs": [],
      "name": "total",
      "outputs": [
        {
          "internalType": "uint32",
          "name": "",
          "type": "uint32"
        }
      ],
      "stateMutability": "view",
      "type": "function"
    },
    {
      "inputs": [
        {
          "internalType": "address",
          "name": "newOwner",
          "type": "address"
        }
      ],
      "name": "transferOwnership",
      "outputs": [],
      "stateMutability": "nonpayable",
      "type": "function"
    },
    {
      "inputs": [
        {
          "internalType": "uint256",
          "name": "_startTime",
          "type": "uint256"
        },
        {
          "internalType": "uint256",
          "name": "_endTime",
          "type": "uint256"
        },
        {
          "internalType": "uint32",
          "name": "_total",
          "type": "uint32"
        },
        {
          "internalType": "uint256",
          "name": "_price",
          "type": "uint256"
        },
        {
          "internalType": "address",
          "name": "_token",
          "type": "address"
        }
      ],
      "name": "update",
      "outputs": [],
      "stateMutability": "nonpayable",
      "type": "function"
    },
    {
      "inputs": [
        {
          "internalType": "string",
          "name": "_bearOneId",
          "type": "string"
        },
        {
          "internalType": "string",
          "name": "_bearTwoId",
          "type": "string"
        },
        {
          "internalType": "uint32",
          "name": "_useInsurance",
          "type": "uint32"
        },
        {
          "internalType": "uint256",
          "name": "_fee",
          "type": "uint256"
        }
      ],
      "name": "upgradeBear",
      "outputs": [],
      "stateMutability": "payable",
      "type": "function"
    },
    {
      "inputs": [
        {
          "internalType": "uint256",
          "name": "_round",
          "type": "uint256"
        },
        {
          "internalType": "uint256",
          "name": "_amount",
          "type": "uint256"
        },
        {
          "internalType": "bytes32",
          "name": "_messageHash",
          "type": "bytes32"
        }
      ],
      "name": "vesting",
      "outputs": [],
      "stateMutability": "nonpayable",
      "type": "function"
    },
    {
      "inputs": [
        {
          "internalType": "address",
          "name": "",
          "type": "address"
        },
        {
          "internalType": "uint256",
          "name": "",
          "type": "uint256"
        }
      ],
      "name": "vestingMap",
      "outputs": [
        {
          "internalType": "bool",
          "name": "",
          "type": "bool"
        }
      ],
      "stateMutability": "view",
      "type": "function"
    },
    {
      "inputs": [],
      "name": "vestingToken",
      "outputs": [
        {
          "internalType": "address",
          "name": "",
          "type": "address"
        }
      ],
      "stateMutability": "view",
      "type": "function"
    },
    {
      "inputs": [
        {
          "internalType": "string",
          "name": "",
          "type": "string"
        }
      ],
      "name": "vouchers",
      "outputs": [
        {
          "internalType": "uint256",
          "name": "",
          "type": "uint256"
        }
      ],
      "stateMutability": "view",
      "type": "function"
    },
    {
      "stateMutability": "payable",
      "type": "receive"
    }
  ],
  "bytecode": "0x608060405234801561001057600080fd5b50612e3d806100206000396000f3fe6080604052600436106102e85760003560e01c80638c65c81f11610190578063b684e2bc116100dc578063d6652c9411610095578063ef8687ee1161006f578063ef8687ee14610930578063f1d8ac0014610943578063f2fde38b14610963578063fc0c546a1461098357600080fd5b8063d6652c94146108dd578063e0686563146108f0578063ea6d03651461091057600080fd5b8063b684e2bc14610826578063b6b55f2514610846578063b76eafac14610859578063b7ce9bc01461086f578063cc3825d314610882578063d3afc1ab146108a257600080fd5b80639ecd604a11610149578063a648285811610123578063a6482858146107bd578063a712d55f146107d3578063a71bbebe146107f3578063b4fd27fd1461080657600080fd5b80639ecd604a14610767578063a035b1fe1461076f578063a2e6bc131461078557600080fd5b80638c65c81f146106b35780638da5cb5b146106d357806391b7f5ed146106f157806394b46aff1461071157806399d32fc4146107315780639daea0d01461074757600080fd5b80633a8dd5271161024f5780635d951d7e11610208578063715018a6116101e2578063715018a61461064857806376a8d8291461065d57806378e979251461067d5780637b8fab5f1461069357600080fd5b80635d951d7e146105d7578063601263461461061257806367a527931461063257600080fd5b80633a8dd527146104d757806342e56be91461051257806346d3547114610532578063490ae2101461055f5780634f64b2be1461057f5780635a30cd791461059f57600080fd5b80632ddbd13a116102a15780632ddbd13a146104235780632e75ab50146104405780632fd8fc23146104605780633197cbb61461048e57806335477070146104a457806337b6c887146104b757600080fd5b806302c7e7af146102f457806305f461b614610333578063150b7a021461034857806315498f411461038d57806319d152fa146103d85780631f465f3d1461041057600080fd5b366102ef57005b600080fd5b34801561030057600080fd5b5060675461031990640100000000900463ffffffff1681565b60405163ffffffff90911681526020015b60405180910390f35b6103466103413660046128f7565b6109a3565b005b34801561035457600080fd5b5061037461036336600461243c565b630a85bd0160e11b95945050505050565b6040516001600160e01b0319909116815260200161032a565b34801561039957600080fd5b506103c86103a83660046124da565b606f60209081526000928352604080842090915290825290205460ff1681565b604051901515815260200161032a565b3480156103e457600080fd5b50607c546103f8906001600160a01b031681565b6040516001600160a01b03909116815260200161032a565b61034661041e366004612787565b610b57565b34801561042f57600080fd5b506067546103199063ffffffff1681565b34801561044c57600080fd5b5061034661045b36600461285e565b610c2a565b34801561046c57600080fd5b5061048061047b36600461294d565b610c59565b60405190815260200161032a565b34801561049a57600080fd5b5061048060665481565b6103466104b236600461294d565b610c6a565b3480156104c357600080fd5b50606c546103f8906001600160a01b031681565b3480156104e357600080fd5b506103c86104f23660046124da565b607a60209081526000928352604080842090915290825290205460ff1681565b34801561051e57600080fd5b5061034661052d3660046128a3565b610d71565b34801561053e57600080fd5b5061055261054d36600461274b565b610e76565b60405161032a9190612af2565b34801561056b57600080fd5b5061034661057a36600461285e565b610f0f565b34801561058b57600080fd5b506103f861059a36600461285e565b610f3e565b3480156105ab57600080fd5b506104806105ba36600461274b565b805160208183018101805160728252928201919093012091525481565b3480156105e357600080fd5b506103c86105f236600461274b565b805160208183018101805160708252928201919093012091525460ff1681565b34801561061e57600080fd5b5061048061062d36600461285e565b610f68565b34801561063e57600080fd5b50610480606e5481565b34801561065457600080fd5b50610346610f89565b34801561066957600080fd5b506103466106783660046126c6565b610fbf565b34801561068957600080fd5b5061048060655481565b34801561069f57600080fd5b506103466106ae366004612877565b611015565b3480156106bf57600080fd5b506104806106ce36600461285e565b6111fe565b3480156106df57600080fd5b506033546001600160a01b03166103f8565b3480156106fd57600080fd5b5061034661070c36600461285e565b61120e565b34801561071d57600080fd5b5061048061072c36600461285e565b61123d565b34801561073d57600080fd5b50610480606d5481565b34801561075357600080fd5b50610346610762366004612402565b61124d565b6103466112b1565b34801561077b57600080fd5b5061048060685481565b34801561079157600080fd5b506104806107a03660046124da565b607560209081526000928352604080842090915290825290205481565b3480156107c957600080fd5b5061048060735481565b3480156107df57600080fd5b506103466107ee366004612663565b61137d565b61034661080136600461294d565b6113ea565b34801561081257600080fd5b506103466108213660046128a3565b611512565b34801561083257600080fd5b506103466108413660046124da565b611586565b61034661085436600461285e565b61163e565b34801561086557600080fd5b5061048060765481565b61034661087d36600461274b565b611807565b34801561088e57600080fd5b5061034661089d36600461285e565b61190e565b3480156108ae57600080fd5b506103c86108bd36600461274b565b805160208183018101805160778252928201919093012091525460ff1681565b6103466108eb366004612802565b61193d565b3480156108fc57600080fd5b5061034661090b366004612402565b611c09565b34801561091c57600080fd5b5061034661092b3660046125a6565b611c55565b61034661093e366004612877565b611cd7565b34801561094f57600080fd5b5061034661095e366004612506565b611e67565b34801561096f57600080fd5b5061034661097e366004612402565b611ea8565b34801561098f57600080fd5b506069546103f8906001600160a01b031681565b6000607484815481106109b8576109b8612dc6565b90600052602060002001541180156109d7575060648263ffffffff1611155b610a1b5760405162461bcd60e51b815260206004820152601060248201526f496e76616c6964207175616e7469747960801b60448201526064015b60405180910390fd5b6069546001600160a01b0316600063ffffffff8416610a3a8685611f43565b610a449190612cda565b90506000818563ffffffff1660748881548110610a6357610a63612dc6565b9060005260206000200154610a789190612cda565b610a829190612d28565b9050826001600160a01b03166323b872dd33610a9c611f99565b846040518463ffffffff1660e01b8152600401610abb93929190612a11565b602060405180830381600087803b158015610ad557600080fd5b505af1158015610ae9573d6000803e3d6000fd5b505050506040513d601f19601f82011682018060405250810190610b0d9190612729565b507f1b5eb991dd51f4e707dbec460ca278d8f27aaf6d2c9b25dfd7469400be9893b1338787878686604051610b4796959493929190612aaa565b60405180910390a1505050505050565b6069546001600160a01b0316806323b872dd33610b72611f99565b856040518463ffffffff1660e01b8152600401610b9193929190612a11565b602060405180830381600087803b158015610bab57600080fd5b505af1158015610bbf573d6000803e3d6000fd5b505050506040513d601f19601f82011682018060405250810190610be39190612729565b507f678930ba933e5bc8ea288fe3614974b096358a83078a404aa8dbae7792b379f83386868686604051610c1b959493929190612a59565b60405180910390a15050505050565b6033546001600160a01b03163314610c545760405162461bcd60e51b8152600401610a1290612b88565b606d55565b6000610c6482612000565b92915050565b6069546001600160a01b0316806323b872dd33610c85611f99565b610c9d63ffffffff8716670de0b6b3a7640000612cf9565b6040516001600160e01b031960e086901b1681526001600160a01b0393841660048201529290911660248301526001600160401b03166044820152606401602060405180830381600087803b158015610cf557600080fd5b505af1158015610d09573d6000803e3d6000fd5b505050506040513d601f19601f82011682018060405250810190610d2d9190612729565b506040805133815263ffffffff841660208201527f68c087ac57a0ba398af430b4506ef041f82439d5f11d1e28c13e8033dfce3e7791015b60405180910390a15050565b600054610100900460ff16610d8c5760005460ff1615610d90565b303b155b610df35760405162461bcd60e51b815260206004820152602e60248201527f496e697469616c697a61626c653a20636f6e747261637420697320616c72656160448201526d191e481a5b9a5d1a585b1a5e995960921b6064820152608401610a12565b600054610100900460ff16158015610e15576000805461ffff19166101011790555b606586905560668590556067805463ffffffff191663ffffffff86161790556068839055606980546001600160a01b0319166001600160a01b038416179055610e5c612071565b8015610e6e576000805461ff00191690555b505050505050565b6078546060906000906001600160401b03811115610e9657610e96612ddc565b604051908082528060200260200182016040528015610ebf578160200160208202803683370190505b50905060005b607854811015610f0857610ed98185611f43565b828281518110610eeb57610eeb612dc6565b602090810291909101015280610f0081612d6b565b915050610ec5565b5092915050565b6033546001600160a01b03163314610f395760405162461bcd60e51b8152600401610a1290612b88565b606e55565b60718181548110610f4e57600080fd5b6000918252602090912001546001600160a01b0316905081565b60748181548110610f7857600080fd5b600091825260209091200154905081565b6033546001600160a01b03163314610fb35760405162461bcd60e51b8152600401610a1290612b88565b610fbd60006120a0565b565b6033546001600160a01b03163314610fe95760405162461bcd60e51b8152600401610a1290612b88565b8151610ffc906074906020850190612253565b508051611010906078906020840190612253565b505050565b60795483108015611043575060006079848154811061103657611036612dc6565b9060005260206000200154115b801561106c5750426079848154811061105e5761105e612dc6565b906000526020600020015411155b6110a85760405162461bcd60e51b815260206004820152600d60248201526c125b9d985b1a59081c9bdd5b99609a1b6044820152606401610a12565b336000908152607a6020908152604080832086845290915290205460ff16156110e35760405162461bcd60e51b8152600401610a1290612b36565b6110ef338484846120f2565b61110b5760405162461bcd60e51b8152600401610a1290612b5d565b607c54607b546040516323b872dd60e01b81526001600160a01b03928316926323b872dd926111439291169033908790600401612a11565b602060405180830381600087803b15801561115d57600080fd5b505af1158015611171573d6000803e3d6000fd5b505050506040513d601f19601f820116820180604052508101906111959190612729565b50336000818152607a60209081526040808320878452825291829020805460ff191660011790558151928352820185905281018390527ff870f86d1eff0cf4fa95d14a2b2ae48a13568195fd90101457a4e41d1ec5982e906060015b60405180910390a1505050565b60798181548110610f7857600080fd5b6033546001600160a01b031633146112385760405162461bcd60e51b8152600401610a1290612b88565b606855565b60788181548110610f7857600080fd5b6033546001600160a01b031633146112775760405162461bcd60e51b8152600401610a1290612b88565b600061128561708043612cc6565b6001600160a01b0390921660009081526075602090815260408083209483529390529182209190915550565b6069546001600160a01b0316806323b872dd336112cc611f99565b674563918244f400006040518463ffffffff1660e01b81526004016112f393929190612a11565b602060405180830381600087803b15801561130d57600080fd5b505af1158015611321573d6000803e3d6000fd5b505050506040513d601f19601f820116820180604052508101906113459190612729565b506040513381527f871d05609f7bf6a9380debbc267354c2d838f6c15706a902fe742638b8d6db45906020015b60405180910390a150565b6033546001600160a01b031633146113a75760405162461bcd60e51b8152600401610a1290612b88565b82516113ba906079906020860190612253565b50607b80546001600160a01b039384166001600160a01b031991821617909155607c805492909316911617905550565b6069546001600160a01b0316600061140183612000565b9050816001600160a01b03166323b872dd3361141b611f99565b846040518463ffffffff1660e01b815260040161143a93929190612a11565b602060405180830381600087803b15801561145457600080fd5b505af1158015611468573d6000803e3d6000fd5b505050506040513d601f19601f8201168201806040525081019061148c9190612729565b5082606760048282829054906101000a900463ffffffff166114ae9190612c9e565b82546101009290920a63ffffffff818102199093169183160217909155604080513381529186166020830152600090820152606081018390527fea8d5ce4ba421754a5d502ac922df264f02af43f2b0176e33242bdf5d0b487dc91506080016111f1565b6033546001600160a01b0316331461153c5760405162461bcd60e51b8152600401610a1290612b88565b6065949094556066929092556067805463ffffffff191663ffffffff92909216919091179055606855606980546001600160a01b0319166001600160a01b03909216919091179055565b6033546001600160a01b031633146115b05760405162461bcd60e51b8152600401610a1290612b88565b60695460405163a9059cbb60e01b81526001600160a01b0384811660048301526024820184905290911690819063a9059cbb90604401602060405180830381600087803b15801561160057600080fd5b505af1158015611614573d6000803e3d6000fd5b505050506040513d601f19601f820116820180604052508101906116389190612729565b50505050565b606c54606e546001600160a01b039091169034101561166f5760405162461bcd60e51b8152600401610a1290612bbd565b6040516331a9108f60e11b8152600481018390526001600160a01b03821690636352211e9060240160206040518083038186803b1580156116af57600080fd5b505afa1580156116c3573d6000803e3d6000fd5b505050506040513d601f19601f820116820180604052508101906116e7919061241f565b6001600160a01b0316336001600160a01b0316146117335760405162461bcd60e51b81526020600482015260096024820152682737ba1037bbb732b960b91b6044820152606401610a12565b61173b611f99565b6001600160a01b03166108fc606e549081150290604051600060405180830381858888f19350505050158015611775573d6000803e3d6000fd5b50604051630852cd8d60e31b8152600481018390526001600160a01b038216906342966c6890602401600060405180830381600087803b1580156117b857600080fd5b505af11580156117cc573d6000803e3d6000fd5b505060408051338152602081018690527fe1fffcc4923d04b559f4d29a8bfc6cda04eb5b0d3c460751c2402c5c5cc9109c9350019050610d65565b6070816040516118179190612994565b9081526040519081900360200190205460ff16156118475760405162461bcd60e51b8152600401610a1290612b36565b34606d5411156118695760405162461bcd60e51b8152600401610a1290612bbd565b611871611f99565b6001600160a01b03166108fc606d549081150290604051600060405180830381858888f193505050501580156118ab573d6000803e3d6000fd5b5060016070826040516118be9190612994565b908152604051908190036020018120805492151560ff19909316929092179091557f633af6b639d67285ab0ac5349278cc01df0323f0a7f760f4e32361d666073220906113729033908490612a35565b6033546001600160a01b031633146119385760405162461bcd60e51b8152600401610a1290612b88565b607655565b600061194b61708043612cc6565b607654336000908152607560209081526040808320858452909152902054919250116119aa5760405162461bcd60e51b815260206004820152600e60248201526d086d8c2d2da40e8dede40daeac6d60931b6044820152606401610a12565b336000908152606f6020908152604080832086845290915290205460ff16156119e55760405162461bcd60e51b8152600401610a1290612b36565b6119ef8585612163565b611a265760405162461bcd60e51b81526020600482015260086024820152670a8dede409aeac6d60c31b6044820152606401610a12565b611a34833388888887612191565b611a505760405162461bcd60e51b8152600401610a1290612b5d565b34606d541115611a725760405162461bcd60e51b8152600401610a1290612bbd565b611a7a611f99565b6001600160a01b03166108fc606d549081150290604051600060405180830381858888f19350505050158015611ab4573d6000803e3d6000fd5b5084611aed57604051339085156108fc029086906000818181858888f19350505050158015611ae7573d6000803e3d6000fd5b50611b76565b60695460405163a9059cbb60e01b8152336004820152602481018690526001600160a01b0390911690819063a9059cbb90604401602060405180830381600087803b158015611b3b57600080fd5b505af1158015611b4f573d6000803e3d6000fd5b505050506040513d601f19601f82011682018060405250810190611b739190612729565b50505b336000818152606f602090815260408083208784528252808320805460ff1916600190811790915593835260758252808320858452909152902054611bba91612c86565b336000818152607560209081526040808320868452909152908190209290925590517f633af6b639d67285ab0ac5349278cc01df0323f0a7f760f4e32361d66607322091610b47918990612a35565b6033546001600160a01b03163314611c335760405162461bcd60e51b8152600401610a1290612b88565b606c80546001600160a01b0319166001600160a01b0392909216919091179055565b6033546001600160a01b03163314611c7f5760405162461bcd60e51b8152600401610a1290612b88565b60005b825181101561101057816072848381518110611ca057611ca0612dc6565b6020026020010151604051611cb59190612994565b9081526040519081900360200190205580611ccf81612d6b565b915050611c82565b336000908152606f6020908152604080832085845290915290205460ff1615611d125760405162461bcd60e51b8152600401610a1290612b36565b611d1e823385846121d4565b611d3a5760405162461bcd60e51b8152600401610a1290612b5d565b34606d541115611d5c5760405162461bcd60e51b8152600401610a1290612bbd565b611d64611f99565b6001600160a01b03166108fc606d549081150290604051600060405180830381858888f19350505050158015611d9e573d6000803e3d6000fd5b50606c546040516340c10f1960e01b8152336004820152602481018590526001600160a01b039091169081906340c10f1990604401600060405180830381600087803b158015611ded57600080fd5b505af1158015611e01573d6000803e3d6000fd5b5050336000818152606f60209081526040808320898452825291829020805460ff19166001179055815192835282018890527f47cee97cb7acd717b3c0aa1435d004cd5b3c8c57d70dbceb4e4458bbd60e39d4935001905060405180910390a150505050565b6033546001600160a01b03163314611e915760405162461bcd60e51b8152600401610a1290612b88565b8051611ea490606a90602084019061229e565b5050565b6033546001600160a01b03163314611ed25760405162461bcd60e51b8152600401610a1290612b88565b6001600160a01b038116611f375760405162461bcd60e51b815260206004820152602660248201527f4f776e61626c653a206e6577206f776e657220697320746865207a65726f206160448201526564647265737360d01b6064820152608401610a12565b611f40816120a0565b50565b600080607283604051611f569190612994565b9081526020016040518091039020541115611f905760788381548110611f7e57611f7e612dc6565b90600052602060002001549050610c64565b50600092915050565b606a5460009015611ffb57606a54606b54600091611fb691612d86565b606b80549192506000611fc883612d6b565b9190505550606a8181548110611fe057611fe0612dc6565b6000918252602090912001546001600160a01b031692915050565b503090565b6000808263ffffffff1611801561201e575060648263ffffffff1611155b61205d5760405162461bcd60e51b815260206004820152601060248201526f496e76616c6964207175616e7469747960801b6044820152606401610a12565b8163ffffffff16606854610c649190612cda565b600054610100900460ff166120985760405162461bcd60e51b8152600401610a1290612be8565b610fbd612223565b603380546001600160a01b038381166001600160a01b0319831681179093556040519116919082907f8be0079c531659141344cd1fd0a4f28419497f9722a3daafe3b4186f6b6457e090600090a35050565b6040516bffffffffffffffffffffffff19606086901b16602082015260348101849052605481018390526f574979724b756f714d73624e654f764960801b607482015260009081906084015b60408051601f1981840301815291905280516020909101208314915050949350505050565b6000821561217d5768056bc75e2d6310000082111561218a565b67016345785d8a00008211155b9392505050565b60008087878787876040516020016121ad9594939291906129b0565b60408051601f19818403018152919052805160209091012083149150509695505050505050565b60008085858560405160200161213e9392919092835260609190911b6bffffffffffffffffffffffff1916602083015260348201526a188cccd85c9cd958dc8cdd60aa1b6054820152605f0190565b600054610100900460ff1661224a5760405162461bcd60e51b8152600401610a1290612be8565b610fbd336120a0565b82805482825590600052602060002090810192821561228e579160200282015b8281111561228e578251825591602001919060010190612273565b5061229a9291506122f3565b5090565b82805482825590600052602060002090810192821561228e579160200282015b8281111561228e57825182546001600160a01b0319166001600160a01b039091161782556020909201916001909101906122be565b5b8082111561229a57600081556001016122f4565b600082601f83011261231957600080fd5b8135602061232e61232983612c63565b612c33565b80838252828201915082860187848660051b890101111561234e57600080fd5b60005b8581101561236d57813584529284019290840190600101612351565b5090979650505050505050565b600082601f83011261238b57600080fd5b81356001600160401b038111156123a4576123a4612ddc565b6123b7601f8201601f1916602001612c33565b8181528460208386010111156123cc57600080fd5b816020850160208301376000918101602001919091529392505050565b803563ffffffff811681146123fd57600080fd5b919050565b60006020828403121561241457600080fd5b813561218a81612df2565b60006020828403121561243157600080fd5b815161218a81612df2565b60008060008060006080868803121561245457600080fd5b853561245f81612df2565b9450602086013561246f81612df2565b93506040860135925060608601356001600160401b038082111561249257600080fd5b818801915088601f8301126124a657600080fd5b8135818111156124b557600080fd5b8960208285010111156124c757600080fd5b9699959850939650602001949392505050565b600080604083850312156124ed57600080fd5b82356124f881612df2565b946020939093013593505050565b6000602080838503121561251957600080fd5b82356001600160401b0381111561252f57600080fd5b8301601f8101851361254057600080fd5b803561254e61232982612c63565b80828252848201915084840188868560051b870101111561256e57600080fd5b600094505b8385101561259a57803561258681612df2565b835260019490940193918501918501612573565b50979650505050505050565b600080604083850312156125b957600080fd5b82356001600160401b03808211156125d057600080fd5b818501915085601f8301126125e457600080fd5b813560206125f461232983612c63565b8083825282820191508286018a848660051b890101111561261457600080fd5b6000805b8681101561264f5782358881111561262e578283fd5b61263c8e88838d010161237a565b8652509385019391850191600101612618565b50919b999093013599505050505050505050565b60008060006060848603121561267857600080fd5b83356001600160401b0381111561268e57600080fd5b61269a86828701612308565b93505060208401356126ab81612df2565b915060408401356126bb81612df2565b809150509250925092565b600080604083850312156126d957600080fd5b82356001600160401b03808211156126f057600080fd5b6126fc86838701612308565b9350602085013591508082111561271257600080fd5b5061271f85828601612308565b9150509250929050565b60006020828403121561273b57600080fd5b8151801515811461218a57600080fd5b60006020828403121561275d57600080fd5b81356001600160401b0381111561277357600080fd5b61277f8482850161237a565b949350505050565b6000806000806080858703121561279d57600080fd5b84356001600160401b03808211156127b457600080fd5b6127c08883890161237a565b955060208701359150808211156127d657600080fd5b506127e38782880161237a565b9350506127f2604086016123e9565b9396929550929360600135925050565b600080600080600060a0868803121561281a57600080fd5b85356001600160401b0381111561283057600080fd5b61283c8882890161237a565b9860208801359850604088013597606081013597506080013595509350505050565b60006020828403121561287057600080fd5b5035919050565b60008060006060848603121561288c57600080fd5b505081359360208301359350604090920135919050565b600080600080600060a086880312156128bb57600080fd5b85359450602086013593506128d2604087016123e9565b92506060860135915060808601356128e981612df2565b809150509295509295909350565b60008060006060848603121561290c57600080fd5b8335925061291c602085016123e9565b915060408401356001600160401b0381111561293757600080fd5b6129438682870161237a565b9150509250925092565b60006020828403121561295f57600080fd5b61218a826123e9565b60008151808452612980816020860160208601612d3f565b601f01601f19169290920160200192915050565b600082516129a6818460208701612d3f565b9190910192915050565b8581526bffffffffffffffffffffffff198560601b166020820152600084516129e0816034850160208901612d3f565b90910160348101939093525060548201526c31b7b4b73a183599b71918191960991b60748201526081019392505050565b6001600160a01b039384168152919092166020820152604081019190915260600190565b6001600160a01b038316815260406020820181905260009061277f90830184612968565b6001600160a01b038616815260a060208201819052600090612a7d90830187612968565b8281036040840152612a8f8187612968565b63ffffffff9590951660608401525050608001529392505050565b60018060a01b038716815285602082015263ffffffff8516604082015260c060608201526000612add60c0830186612968565b60808301949094525060a00152949350505050565b6020808252825182820181905260009190848201906040850190845b81811015612b2a57835183529284019291840191600101612b0e565b50909695505050505050565b6020808252600d908201526c416c726561647920436c61696d60981b604082015260600190565b602080825260119082015270496e76616c6964205369676e617475726560781b604082015260600190565b6020808252818101527f4f776e61626c653a2063616c6c6572206973206e6f7420746865206f776e6572604082015260600190565b60208082526011908201527008ccaca40d2e640dcdee840cadcdeeaced607b1b604082015260600190565b6020808252602b908201527f496e697469616c697a61626c653a20636f6e7472616374206973206e6f74206960408201526a6e697469616c697a696e6760a81b606082015260800190565b604051601f8201601f191681016001600160401b0381118282101715612c5b57612c5b612ddc565b604052919050565b60006001600160401b03821115612c7c57612c7c612ddc565b5060051b60200190565b60008219821115612c9957612c99612d9a565b500190565b600063ffffffff808316818516808303821115612cbd57612cbd612d9a565b01949350505050565b600082612cd557612cd5612db0565b500490565b6000816000190483118215151615612cf457612cf4612d9a565b500290565b60006001600160401b0380831681851681830481118215151615612d1f57612d1f612d9a565b02949350505050565b600082821015612d3a57612d3a612d9a565b500390565b60005b83811015612d5a578181015183820152602001612d42565b838111156116385750506000910152565b6000600019821415612d7f57612d7f612d9a565b5060010190565b600082612d9557612d95612db0565b500690565b634e487b7160e01b600052601160045260246000fd5b634e487b7160e01b600052601260045260246000fd5b634e487b7160e01b600052603260045260246000fd5b634e487b7160e01b600052604160045260246000fd5b6001600160a01b0381168114611f4057600080fdfea2646970667358221220666e8db3f6817e3ba7e6247f72558be6f512756acf552105badb7d92cdb327a064736f6c63430008060033",
  "linkReferences": {},
  "deployedLinkReferences": {}
}