{
  "_format": "hh-sol-artifact-1",
  "contractName": "Marketplace",
  "sourceName": "contracts/Marketplace.sol",
  "abi": [
    {
      "anonymous": false,
      "inputs": [
        {
          "indexed": false,
          "internalType": "address",
          "name": "user",
          "type": "address"
        },
        {
          "indexed": false,
          "internalType": "string",
          "name": "action",
          "type": "string"
        },
        {
          "indexed": false,
          "internalType": "string",
          "name": "listingId",
          "type": "string"
        },
        {
          "indexed": false,
          "internalType": "uint256",
          "name": "price",
          "type": "uint256"
        }
      ],
      "name": "MarketEvent",
      "type": "event"
    },
    {
      "anonymous": false,
      "inputs": [
        {
          "indexed": true,
          "internalType": "address",
          "name": "previousOwner",
          "type": "address"
        },
        {
          "indexed": true,
          "internalType": "address",
          "name": "newOwner",
          "type": "address"
        }
      ],
      "name": "OwnershipTransferred",
      "type": "event"
    },
    {
      "inputs": [
        {
          "internalType": "string",
          "name": "_listingId",
          "type": "string"
        },
        {
          "internalType": "address",
          "name": "_seller",
          "type": "address"
        },
        {
          "internalType": "uint256",
          "name": "_price",
          "type": "uint256"
        },
        {
          "internalType": "uint256",
          "name": "_timestamp",
          "type": "uint256"
        },
        {
          "internalType": "bytes32",
          "name": "_messageHash",
          "type": "bytes32"
        }
      ],
      "name": "buy",
      "outputs": [],
      "stateMutability": "payable",
      "type": "function"
    },
    {
      "inputs": [
        {
          "internalType": "string",
          "name": "_listingId",
          "type": "string"
        },
        {
          "internalType": "uint256",
          "name": "_timestamp",
          "type": "uint256"
        },
        {
          "internalType": "bytes32",
          "name": "_messageHash",
          "type": "bytes32"
        }
      ],
      "name": "cancel",
      "outputs": [],
      "stateMutability": "payable",
      "type": "function"
    },
    {
      "inputs": [
        {
          "internalType": "string",
          "name": "",
          "type": "string"
        }
      ],
      "name": "closedIds",
      "outputs": [
        {
          "internalType": "bool",
          "name": "",
          "type": "bool"
        }
      ],
      "stateMutability": "view",
      "type": "function"
    },
    {
      "inputs": [
        {
          "internalType": "string",
          "name": "_listingId",
          "type": "string"
        },
        {
          "internalType": "uint256",
          "name": "_newPrice",
          "type": "uint256"
        },
        {
          "internalType": "uint256",
          "name": "_timestamp",
          "type": "uint256"
        },
        {
          "internalType": "bytes32",
          "name": "_messageHash",
          "type": "bytes32"
        }
      ],
      "name": "edit",
      "outputs": [],
      "stateMutability": "payable",
      "type": "function"
    },
    {
      "inputs": [
        {
          "internalType": "string",
          "name": "",
          "type": "string"
        }
      ],
      "name": "editMap",
      "outputs": [
        {
          "internalType": "uint256",
          "name": "",
          "type": "uint256"
        }
      ],
      "stateMutability": "view",
      "type": "function"
    },
    {
      "inputs": [
        {
          "internalType": "address",
          "name": "_token",
          "type": "address"
        }
      ],
      "name": "initialize",
      "outputs": [],
      "stateMutability": "nonpayable",
      "type": "function"
    },
    {
      "inputs": [
        {
          "internalType": "address",
          "name": "",
          "type": "address"
        },
        {
          "internalType": "address",
          "name": "",
          "type": "address"
        },
        {
          "internalType": "uint256",
          "name": "",
          "type": "uint256"
        },
        {
          "internalType": "bytes",
          "name": "",
          "type": "bytes"
        }
      ],
      "name": "onERC721Received",
      "outputs": [
        {
          "internalType": "bytes4",
          "name": "",
          "type": "bytes4"
        }
      ],
      "stateMutability": "pure",
      "type": "function"
    },
    {
      "inputs": [],
      "name": "owner",
      "outputs": [
        {
          "internalType": "address",
          "name": "",
          "type": "address"
        }
      ],
      "stateMutability": "view",
      "type": "function"
    },
    {
      "inputs": [],
      "name": "renounceOwnership",
      "outputs": [],
      "stateMutability": "nonpayable",
      "type": "function"
    },
    {
      "inputs": [
        {
          "internalType": "address",
          "name": "_token",
          "type": "address"
        }
      ],
      "name": "setToken",
      "outputs": [],
      "stateMutability": "nonpayable",
      "type": "function"
    },
    {
      "inputs": [
        {
          "internalType": "address",
          "name": "",
          "type": "address"
        },
        {
          "internalType": "uint256",
          "name": "",
          "type": "uint256"
        }
      ],
      "name": "timestampMap",
      "outputs": [
        {
          "internalType": "bool",
          "name": "",
          "type": "bool"
        }
      ],
      "stateMutability": "view",
      "type": "function"
    },
    {
      "inputs": [],
      "name": "token",
      "outputs": [
        {
          "internalType": "address",
          "name": "",
          "type": "address"
        }
      ],
      "stateMutability": "view",
      "type": "function"
    },
    {
      "inputs": [
        {
          "internalType": "address",
          "name": "newOwner",
          "type": "address"
        }
      ],
      "name": "transferOwnership",
      "outputs": [],
      "stateMutability": "nonpayable",
      "type": "function"
    },
    {
      "stateMutability": "payable",
      "type": "receive"
    }
  ],
  "bytecode": "0x608060405234801561001057600080fd5b50611103806100206000396000f3fe6080604052600436106100c65760003560e01c8063c4d66de81161007f578063e96c8c1611610059578063e96c8c161461025c578063f214a3401461026f578063f2fde38b146102aa578063fc0c546a146102ca57600080fd5b8063c4d66de8146101e3578063cc06247014610203578063dfff4c791461024957600080fd5b8063051a9a68146100d2578063144fa6d7146100e7578063150b7a021461010757806338417a8314610151578063715018a61461019c5780638da5cb5b146101b157600080fd5b366100cd57005b600080fd5b6100e56100e0366004610db4565b6102ea565b005b3480156100f357600080fd5b506100e5610102366004610bb8565b610446565b34801561011357600080fd5b50610133610122366004610bda565b630a85bd0160e11b95945050505050565b6040516001600160e01b031990911681526020015b60405180910390f35b34801561015d57600080fd5b5061018c61016c366004610c75565b606860209081526000928352604080842090915290825290205460ff1681565b6040519015158152602001610148565b3480156101a857600080fd5b506100e5610492565b3480156101bd57600080fd5b506033546001600160a01b03165b6040516001600160a01b039091168152602001610148565b3480156101ef57600080fd5b506100e56101fe366004610bb8565b6104c8565b34801561020f57600080fd5b5061023b61021e366004610cc1565b805160208183018101805160678252928201919093012091525481565b604051908152602001610148565b6100e5610257366004610cfe565b6105a5565b6100e561026a366004610d66565b61081d565b34801561027b57600080fd5b5061018c61028a366004610cc1565b805160208183018101805160658252928201919093012091525460ff1681565b3480156102b657600080fd5b506100e56102c5366004610bb8565b610982565b3480156102d657600080fd5b506066546101cb906001600160a01b031681565b836065816040516102fb9190610e34565b9081526040519081900360200190205460ff16156103345760405162461bcd60e51b815260040161032b90610fbc565b60405180910390fd5b336000818152606860209081526040808320878452909152902054849060ff16156103715760405162461bcd60e51b815260040161032b90610f99565b61039c85336040518060400160405280600481526020016319591a5d60e21b8152508a338b8a610a1d565b6103b85760405162461bcd60e51b815260040161032b90610fdc565b33600090815260686020908152604080832088845290915290819020805460ff191660011790555186906067906103f0908a90610e34565b9081526020016040518091039020819055507ff64eeda94be85ab15eaa50f53db4d42e27e11f63efcefa5730683852e79fcbf033888860405161043593929190610f5d565b60405180910390a150505050505050565b6033546001600160a01b031633146104705760405162461bcd60e51b815260040161032b90611007565b606680546001600160a01b0319166001600160a01b0392909216919091179055565b6033546001600160a01b031633146104bc5760405162461bcd60e51b815260040161032b90611007565b6104c66000610a63565b565b600054610100900460ff166104e35760005460ff16156104e7565b303b155b61054a5760405162461bcd60e51b815260206004820152602e60248201527f496e697469616c697a61626c653a20636f6e747261637420697320616c72656160448201526d191e481a5b9a5d1a585b1a5e995960921b606482015260840161032b565b600054610100900460ff1615801561056c576000805461ffff19166101011790555b606680546001600160a01b0319166001600160a01b03841617905561058f610ab5565b80156105a1576000805461ff00191690555b5050565b846065816040516105b69190610e34565b9081526040519081900360200190205460ff16156105e65760405162461bcd60e51b815260040161032b90610fbc565b336000818152606860209081526040808320878452909152902054849060ff16156106235760405162461bcd60e51b815260040161032b90610f99565b61064d85336040518060400160405280600381526020016262757960e81b8152508b8b8b8a610a1d565b6106695760405162461bcd60e51b815260040161032b90610fdc565b6067886040516106799190610e34565b908152602001604051809103902054600014806106b35750856067896040516106a29190610e34565b908152602001604051809103902054145b6106ef5760405162461bcd60e51b815260206004820152600d60248201526c141c9a58d94810da185b99d959609a1b604482015260640161032b565b6066546040516323b872dd60e01b81523360048201526001600160a01b038981166024830152604482018990529091169081906323b872dd90606401602060405180830381600087803b15801561074557600080fd5b505af1158015610759573d6000803e3d6000fd5b505050506040513d601f19601f8201168201806040525081019061077d9190610c9f565b5033600090815260686020908152604080832089845290915290819020805460ff1916600190811790915590516065906107b8908c90610e34565b908152604051908190036020018120805492151560ff19909316929092179091557ff64eeda94be85ab15eaa50f53db4d42e27e11f63efcefa5730683852e79fcbf09061080a9033908c908b90610ed4565b60405180910390a1505050505050505050565b8260658160405161082e9190610e34565b9081526040519081900360200190205460ff161561085e5760405162461bcd60e51b815260040161032b90610fbc565b336000818152606860209081526040808320878452909152902054849060ff161561089b5760405162461bcd60e51b815260040161032b90610f99565b6108c985336040518060400160405280600681526020016518d85b98d95b60d21b815250893360008a610a1d565b6108e55760405162461bcd60e51b815260040161032b90610fdc565b33600090815260686020908152604080832088845290915290819020805460ff19166001908117909155905160659061091f908990610e34565b908152604051908190036020018120805492151560ff19909316929092179091557ff64eeda94be85ab15eaa50f53db4d42e27e11f63efcefa5730683852e79fcbf0906109729033908990600090610f1f565b60405180910390a1505050505050565b6033546001600160a01b031633146109ac5760405162461bcd60e51b815260040161032b90611007565b6001600160a01b038116610a115760405162461bcd60e51b815260206004820152602660248201527f4f776e61626c653a206e6577206f776e657220697320746865207a65726f206160448201526564647265737360d01b606482015260840161032b565b610a1a81610a63565b50565b600080888888888888604051602001610a3b96959493929190610e50565b60408051601f1981840301815291905280516020909101208314915050979650505050505050565b603380546001600160a01b038381166001600160a01b0319831681179093556040519116919082907f8be0079c531659141344cd1fd0a4f28419497f9722a3daafe3b4186f6b6457e090600090a35050565b600054610100900460ff16610adc5760405162461bcd60e51b815260040161032b9061103c565b6104c6600054610100900460ff16610b065760405162461bcd60e51b815260040161032b9061103c565b6104c633610a63565b80356001600160a01b0381168114610b2657600080fd5b919050565b600082601f830112610b3c57600080fd5b813567ffffffffffffffff80821115610b5757610b576110b7565b604051601f8301601f19908116603f01168101908282118183101715610b7f57610b7f6110b7565b81604052838152866020858801011115610b9857600080fd5b836020870160208301376000602085830101528094505050505092915050565b600060208284031215610bca57600080fd5b610bd382610b0f565b9392505050565b600080600080600060808688031215610bf257600080fd5b610bfb86610b0f565b9450610c0960208701610b0f565b935060408601359250606086013567ffffffffffffffff80821115610c2d57600080fd5b818801915088601f830112610c4157600080fd5b813581811115610c5057600080fd5b896020828501011115610c6257600080fd5b9699959850939650602001949392505050565b60008060408385031215610c8857600080fd5b610c9183610b0f565b946020939093013593505050565b600060208284031215610cb157600080fd5b81518015158114610bd357600080fd5b600060208284031215610cd357600080fd5b813567ffffffffffffffff811115610cea57600080fd5b610cf684828501610b2b565b949350505050565b600080600080600060a08688031215610d1657600080fd5b853567ffffffffffffffff811115610d2d57600080fd5b610d3988828901610b2b565b955050610d4860208701610b0f565b94979496505050506040830135926060810135926080909101359150565b600080600060608486031215610d7b57600080fd5b833567ffffffffffffffff811115610d9257600080fd5b610d9e86828701610b2b565b9660208601359650604090950135949350505050565b60008060008060808587031215610dca57600080fd5b843567ffffffffffffffff811115610de157600080fd5b610ded87828801610b2b565b97602087013597506040870135966060013595509350505050565b60008151808452610e20816020860160208601611087565b601f01601f19169290920160200192915050565b60008251610e46818460208701611087565b9190910192915050565b86815260006bffffffffffffffffffffffff19808860601b1660208401528651610e81816034860160208b01611087565b865190840190610e98816034840160208b01611087565b60609690961b9190911694016034810194909452505060488201526c1b4d1c9accdd1c1b1858d95c9d609a1b6068820152607501949350505050565b60018060a01b038416815260806020820152600360808201526262757960e81b60a082015260c060408201526000610f0f60c0830185610e08565b9050826060830152949350505050565b60018060a01b038416815260806020820152600660808201526518d85b98d95b60d21b60a082015260c060408201526000610f0f60c0830185610e08565b60018060a01b038416815260806020820152600460808201526319591a5d60e21b60a082015260c060408201526000610f0f60c0830185610e08565b6020808252600990820152684475706c696361746560b81b604082015260600190565b60208082526006908201526510db1bdcd95960d21b604082015260600190565b602080825260119082015270496e76616c6964205369676e617475726560781b604082015260600190565b6020808252818101527f4f776e61626c653a2063616c6c6572206973206e6f7420746865206f776e6572604082015260600190565b6020808252602b908201527f496e697469616c697a61626c653a20636f6e7472616374206973206e6f74206960408201526a6e697469616c697a696e6760a81b606082015260800190565b60005b838110156110a257818101518382015260200161108a565b838111156110b1576000848401525b50505050565b634e487b7160e01b600052604160045260246000fdfea26469706673582212207881e71e85ba02bc86c9600bbeedbfc49881835508a782823ab6174a40022fcc64736f6c63430008060033",
  "linkReferences": {},
  "deployedLinkReferences": {}
}