{
  "_format": "hh-sol-artifact-1",
  "contractName": "PinkInuPHO",
  "sourceName": "contracts/PinkInuPHO.sol",
  "abi": [
    {
      "anonymous": false,
      "inputs": [
        {
          "indexed": false,
          "internalType": "string",
          "name": "token",
          "type": "string"
        },
        {
          "indexed": false,
          "internalType": "address",
          "name": "user",
          "type": "address"
        },
        {
          "indexed": false,
          "internalType": "uint256",
          "name": "quantity",
          "type": "uint256"
        },
        {
          "indexed": false,
          "internalType": "uint256",
          "name": "total",
          "type": "uint256"
        },
        {
          "indexed": false,
          "internalType": "address",
          "name": "ref",
          "type": "address"
        },
        {
          "indexed": false,
          "internalType": "uint256",
          "name": "refTotal",
          "type": "uint256"
        }
      ],
      "name": "Buy",
      "type": "event"
    },
    {
      "anonymous": false,
      "inputs": [
        {
          "indexed": true,
          "internalType": "address",
          "name": "previousOwner",
          "type": "address"
        },
        {
          "indexed": true,
          "internalType": "address",
          "name": "newOwner",
          "type": "address"
        }
      ],
      "name": "OwnershipTransferred",
      "type": "event"
    },
    {
      "inputs": [
        {
          "internalType": "uint256",
          "name": "_amount",
          "type": "uint256"
        },
        {
          "internalType": "address",
          "name": "_ref",
          "type": "address"
        }
      ],
      "name": "buyWithCoin",
      "outputs": [],
      "stateMutability": "payable",
      "type": "function"
    },
    {
      "inputs": [
        {
          "internalType": "uint256",
          "name": "_amount",
          "type": "uint256"
        },
        {
          "internalType": "address",
          "name": "_ref",
          "type": "address"
        }
      ],
      "name": "buyWithUsd",
      "outputs": [],
      "stateMutability": "payable",
      "type": "function"
    },
    {
      "inputs": [],
      "name": "currentPrice",
      "outputs": [
        {
          "internalType": "uint256",
          "name": "",
          "type": "uint256"
        }
      ],
      "stateMutability": "view",
      "type": "function"
    },
    {
      "inputs": [],
      "name": "currentPriceInfo",
      "outputs": [
        {
          "internalType": "uint256[]",
          "name": "_rounds",
          "type": "uint256[]"
        },
        {
          "internalType": "uint256[]",
          "name": "_prices",
          "type": "uint256[]"
        },
        {
          "internalType": "uint256",
          "name": "_sold",
          "type": "uint256"
        },
        {
          "internalType": "uint256",
          "name": "_priceCurrent",
          "type": "uint256"
        }
      ],
      "stateMutability": "view",
      "type": "function"
    },
    {
      "inputs": [],
      "name": "endTime",
      "outputs": [
        {
          "internalType": "uint256",
          "name": "",
          "type": "uint256"
        }
      ],
      "stateMutability": "view",
      "type": "function"
    },
    {
      "inputs": [
        {
          "internalType": "uint256",
          "name": "_amount",
          "type": "uint256"
        }
      ],
      "name": "estimateCoin",
      "outputs": [
        {
          "internalType": "uint256",
          "name": "",
          "type": "uint256"
        }
      ],
      "stateMutability": "view",
      "type": "function"
    },
    {
      "inputs": [
        {
          "internalType": "uint256",
          "name": "_amount",
          "type": "uint256"
        }
      ],
      "name": "estimateUsd",
      "outputs": [
        {
          "internalType": "uint256",
          "name": "",
          "type": "uint256"
        }
      ],
      "stateMutability": "view",
      "type": "function"
    },
    {
      "inputs": [
        {
          "internalType": "uint256",
          "name": "_startTime",
          "type": "uint256"
        },
        {
          "internalType": "uint256",
          "name": "_endTime",
          "type": "uint256"
        },
        {
          "internalType": "uint256",
          "name": "_total",
          "type": "uint256"
        },
        {
          "internalType": "uint256[]",
          "name": "_rounds",
          "type": "uint256[]"
        },
        {
          "internalType": "uint256[]",
          "name": "_prices",
          "type": "uint256[]"
        },
        {
          "internalType": "address",
          "name": "_usdt",
          "type": "address"
        },
        {
          "internalType": "address",
          "name": "_pancake",
          "type": "address"
        },
        {
          "internalType": "address[]",
          "name": "_sellers",
          "type": "address[]"
        }
      ],
      "name": "initialize",
      "outputs": [],
      "stateMutability": "nonpayable",
      "type": "function"
    },
    {
      "inputs": [],
      "name": "owner",
      "outputs": [
        {
          "internalType": "address",
          "name": "",
          "type": "address"
        }
      ],
      "stateMutability": "view",
      "type": "function"
    },
    {
      "inputs": [],
      "name": "pancake",
      "outputs": [
        {
          "internalType": "address",
          "name": "",
          "type": "address"
        }
      ],
      "stateMutability": "view",
      "type": "function"
    },
    {
      "inputs": [
        {
          "internalType": "uint256",
          "name": "",
          "type": "uint256"
        }
      ],
      "name": "prices",
      "outputs": [
        {
          "internalType": "uint256",
          "name": "",
          "type": "uint256"
        }
      ],
      "stateMutability": "view",
      "type": "function"
    },
    {
      "inputs": [],
      "name": "renounceOwnership",
      "outputs": [],
      "stateMutability": "nonpayable",
      "type": "function"
    },
    {
      "inputs": [
        {
          "internalType": "uint256",
          "name": "",
          "type": "uint256"
        }
      ],
      "name": "rounds",
      "outputs": [
        {
          "internalType": "uint256",
          "name": "",
          "type": "uint256"
        }
      ],
      "stateMutability": "view",
      "type": "function"
    },
    {
      "inputs": [
        {
          "internalType": "address",
          "name": "_usdt",
          "type": "address"
        },
        {
          "internalType": "address",
          "name": "_pancake",
          "type": "address"
        }
      ],
      "name": "setAddress",
      "outputs": [],
      "stateMutability": "nonpayable",
      "type": "function"
    },
    {
      "inputs": [
        {
          "internalType": "uint256[]",
          "name": "_rounds",
          "type": "uint256[]"
        },
        {
          "internalType": "uint256[]",
          "name": "_prices",
          "type": "uint256[]"
        }
      ],
      "name": "setPrices",
      "outputs": [],
      "stateMutability": "nonpayable",
      "type": "function"
    },
    {
      "inputs": [
        {
          "internalType": "address[]",
          "name": "_sellers",
          "type": "address[]"
        }
      ],
      "name": "setSellers",
      "outputs": [],
      "stateMutability": "nonpayable",
      "type": "function"
    },
    {
      "inputs": [
        {
          "internalType": "uint256",
          "name": "_startTime",
          "type": "uint256"
        },
        {
          "internalType": "uint256",
          "name": "_endTime",
          "type": "uint256"
        }
      ],
      "name": "setTime",
      "outputs": [],
      "stateMutability": "nonpayable",
      "type": "function"
    },
    {
      "inputs": [],
      "name": "sold",
      "outputs": [
        {
          "internalType": "uint256",
          "name": "",
          "type": "uint256"
        }
      ],
      "stateMutability": "view",
      "type": "function"
    },
    {
      "inputs": [],
      "name": "startTime",
      "outputs": [
        {
          "internalType": "uint256",
          "name": "",
          "type": "uint256"
        }
      ],
      "stateMutability": "view",
      "type": "function"
    },
    {
      "inputs": [],
      "name": "total",
      "outputs": [
        {
          "internalType": "uint256",
          "name": "",
          "type": "uint256"
        }
      ],
      "stateMutability": "view",
      "type": "function"
    },
    {
      "inputs": [
        {
          "internalType": "address",
          "name": "newOwner",
          "type": "address"
        }
      ],
      "name": "transferOwnership",
      "outputs": [],
      "stateMutability": "nonpayable",
      "type": "function"
    },
    {
      "inputs": [],
      "name": "usdt",
      "outputs": [
        {
          "internalType": "address",
          "name": "",
          "type": "address"
        }
      ],
      "stateMutability": "view",
      "type": "function"
    },
    {
      "stateMutability": "payable",
      "type": "receive"
    }
  ],
  "bytecode": "0x608060405234801561001057600080fd5b5061128b806100206000396000f3fe6080604052600436106101395760003560e01c806383b670b2116100ab578063a0355eca1161006f578063a0355eca1461031d578063bc31c1c11461033d578063bcf33137146102fd578063d05eaae01461035d578063f1d8ac001461037d578063f2fde38b1461039d57600080fd5b806383b670b2146102975780638c65c81f146102aa5780638da5cb5b146102ca5780639d1b464a146102e85780639dcaf193146102fd57600080fd5b80633b58524d116100fd5780633b58524d146101f2578063567627aa14610214578063715018a61461023957806373d0b9e81461024e578063785a0fec1461026e57806378e979251461028157600080fd5b806302c7e7af1461014557806306ec9b5b1461016e5780632ddbd13a146101a65780632f48ab7d146101bc5780633197cbb6146101dc57600080fd5b3661014057005b600080fd5b34801561015157600080fd5b5061015b60685481565b6040519081526020015b60405180910390f35b34801561017a57600080fd5b50606c5461018e906001600160a01b031681565b6040516001600160a01b039091168152602001610165565b3480156101b257600080fd5b5061015b60675481565b3480156101c857600080fd5b5060695461018e906001600160a01b031681565b3480156101e857600080fd5b5061015b60665481565b3480156101fe57600080fd5b5061021261020d366004610e37565b6103bd565b005b34801561022057600080fd5b5061022961041e565b604051610165949392919061108d565b34801561024557600080fd5b506102126104e1565b34801561025a57600080fd5b50610212610269366004610f8b565b610517565b61021261027c366004610f46565b61065b565b34801561028d57600080fd5b5061015b60655481565b6102126102a5366004610f46565b610788565b3480156102b657600080fd5b5061015b6102c5366004610f2d565b6108ad565b3480156102d657600080fd5b506033546001600160a01b031661018e565b3480156102f457600080fd5b5061015b6108ce565b34801561030957600080fd5b5061015b610318366004610f2d565b6108dd565b34801561032957600080fd5b50610212610338366004610f69565b6108ee565b34801561034957600080fd5b5061015b610358366004610f2d565b610923565b34801561036957600080fd5b50610212610378366004610ea7565b610933565b34801561038957600080fd5b50610212610398366004610e6a565b610989565b3480156103a957600080fd5b506102126103b8366004610e15565b6109ca565b6033546001600160a01b031633146103f05760405162461bcd60e51b81526004016103e7906110c6565b60405180910390fd5b606980546001600160a01b039384166001600160a01b031991821617909155606c8054929093169116179055565b606080600080606a606b606854610433610a65565b83546040805160208084028201810190925282815291869183018282801561047a57602002820191906000526020600020905b815481526020019060010190808311610466575b50505050509350828054806020026020016040519081016040528092919081815260200182805480156104cc57602002820191906000526020600020905b8154815260200190600101908083116104b8575b50505050509250935093509350935090919293565b6033546001600160a01b0316331461050b5760405162461bcd60e51b81526004016103e7906110c6565b6105156000610ad5565b565b600054610100900460ff166105325760005460ff1615610536565b303b155b6105995760405162461bcd60e51b815260206004820152602e60248201527f496e697469616c697a61626c653a20636f6e747261637420697320616c72656160448201526d191e481a5b9a5d1a585b1a5e995960921b60648201526084016103e7565b600054610100900460ff161580156105bb576000805461ffff19166101011790555b60658990556066889055606787905585516105dd90606a906020890190610c6b565b5084516105f190606b906020880190610c6b565b50606980546001600160a01b038087166001600160a01b031992831617909255606c805492861692909116919091179055815161063590606d906020850190610cb6565b5061063e610b27565b8015610650576000805461ff00191690555b505050505050505050565b6069546001600160a01b0316806323b872dd33610676610b56565b61068887670de0b6b3a76400006111af565b6040516001600160e01b031960e086901b1681526001600160a01b0393841660048201529290911660248301526044820152606401602060405180830381600087803b1580156106d757600080fd5b505af11580156106eb573d6000803e3d6000fd5b505050506040513d601f19601f8201168201806040525081019061070f9190610f0b565b506040805160c0808252600390820152621554d160ea1b60e08201523360208201529081018490526000606082018190526001600160a01b038416608083015260a08201527f85ea668cb754a99770b9d6b3096d3812a5806f80bb67f39f5c5fcf790aca05d590610100015b60405180910390a1505050565b6069546001600160a01b0316806323b872dd336107a3610b56565b6107b587670de0b6b3a76400006111af565b6040516001600160e01b031960e086901b1681526001600160a01b0393841660048201529290911660248301526044820152606401602060405180830381600087803b15801561080457600080fd5b505af1158015610818573d6000803e3d6000fd5b505050506040513d601f19601f8201168201806040525081019061083c9190610f0b565b506040805160c08082526004908201526321a7a4a760e11b60e08201523360208201529081018490526000606082018190526001600160a01b038416608083015260a08201527f85ea668cb754a99770b9d6b3096d3812a5806f80bb67f39f5c5fcf790aca05d5906101000161077b565b606a81815481106108bd57600080fd5b600091825260209091200154905081565b60006108d8610a65565b905090565b60006108e882610bbd565b92915050565b6033546001600160a01b031633146109185760405162461bcd60e51b81526004016103e7906110c6565b606591909155606655565b606b81815481106108bd57600080fd5b6033546001600160a01b0316331461095d5760405162461bcd60e51b81526004016103e7906110c6565b815161097090606a906020850190610c6b565b50805161098490606b906020840190610c6b565b505050565b6033546001600160a01b031633146109b35760405162461bcd60e51b81526004016103e7906110c6565b80516109c690606d906020840190610cb6565b5050565b6033546001600160a01b031633146109f45760405162461bcd60e51b81526004016103e7906110c6565b6001600160a01b038116610a595760405162461bcd60e51b815260206004820152602660248201527f4f776e61626c653a206e6577206f776e657220697320746865207a65726f206160448201526564647265737360d01b60648201526084016103e7565b610a6281610ad5565b50565b600080805b606a54811015610ab057606a8181548110610a8757610a87611229565b906000526020600020015460685410610a9e578091505b80610aa8816111ce565b915050610a6a565b50606b8181548110610ac457610ac4611229565b906000526020600020015491505090565b603380546001600160a01b038381166001600160a01b0319831681179093556040519116919082907f8be0079c531659141344cd1fd0a4f28419497f9722a3daafe3b4186f6b6457e090600090a35050565b600054610100900460ff16610b4e5760405162461bcd60e51b81526004016103e7906110fb565b610515610c3b565b606d5460009015610bb857606d54606e54600091610b73916111e9565b606e80549192506000610b85836111ce565b9190505550606d8181548110610b9d57610b9d611229565b6000918252602090912001546001600160a01b031692915050565b503090565b60008082118015610bd8575069152d02c7e14af68000008211155b610c175760405162461bcd60e51b815260206004820152601060248201526f496e76616c6964207175616e7469747960801b60448201526064016103e7565b610c1f610a65565b610c3183670de0b6b3a76400006111af565b6108e8919061119b565b600054610100900460ff16610c625760405162461bcd60e51b81526004016103e7906110fb565b61051533610ad5565b828054828255906000526020600020908101928215610ca6579160200282015b82811115610ca6578251825591602001919060010190610c8b565b50610cb2929150610d0b565b5090565b828054828255906000526020600020908101928215610ca6579160200282015b82811115610ca657825182546001600160a01b0319166001600160a01b03909116178255602090920191600190910190610cd6565b5b80821115610cb25760008155600101610d0c565b80356001600160a01b0381168114610d3757600080fd5b919050565b600082601f830112610d4d57600080fd5b81356020610d62610d5d83611177565b611146565b80838252828201915082860187848660051b8901011115610d8257600080fd5b60005b85811015610da857610d9682610d20565b84529284019290840190600101610d85565b5090979650505050505050565b600082601f830112610dc657600080fd5b81356020610dd6610d5d83611177565b80838252828201915082860187848660051b8901011115610df657600080fd5b60005b85811015610da857813584529284019290840190600101610df9565b600060208284031215610e2757600080fd5b610e3082610d20565b9392505050565b60008060408385031215610e4a57600080fd5b610e5383610d20565b9150610e6160208401610d20565b90509250929050565b600060208284031215610e7c57600080fd5b813567ffffffffffffffff811115610e9357600080fd5b610e9f84828501610d3c565b949350505050565b60008060408385031215610eba57600080fd5b823567ffffffffffffffff80821115610ed257600080fd5b610ede86838701610db5565b93506020850135915080821115610ef457600080fd5b50610f0185828601610db5565b9150509250929050565b600060208284031215610f1d57600080fd5b81518015158114610e3057600080fd5b600060208284031215610f3f57600080fd5b5035919050565b60008060408385031215610f5957600080fd5b82359150610e6160208401610d20565b60008060408385031215610f7c57600080fd5b50508035926020909101359150565b600080600080600080600080610100898b031215610fa857600080fd5b883597506020890135965060408901359550606089013567ffffffffffffffff80821115610fd557600080fd5b610fe18c838d01610db5565b965060808b0135915080821115610ff757600080fd5b6110038c838d01610db5565b955061101160a08c01610d20565b945061101f60c08c01610d20565b935060e08b013591508082111561103557600080fd5b506110428b828c01610d3c565b9150509295985092959890939650565b600081518084526020808501945080840160005b8381101561108257815187529582019590820190600101611066565b509495945050505050565b6080815260006110a06080830187611052565b82810360208401526110b28187611052565b604084019590955250506060015292915050565b6020808252818101527f4f776e61626c653a2063616c6c6572206973206e6f7420746865206f776e6572604082015260600190565b6020808252602b908201527f496e697469616c697a61626c653a20636f6e7472616374206973206e6f74206960408201526a6e697469616c697a696e6760a81b606082015260800190565b604051601f8201601f1916810167ffffffffffffffff8111828210171561116f5761116f61123f565b604052919050565b600067ffffffffffffffff8211156111915761119161123f565b5060051b60200190565b6000826111aa576111aa611213565b500490565b60008160001904831182151516156111c9576111c96111fd565b500290565b60006000198214156111e2576111e26111fd565b5060010190565b6000826111f8576111f8611213565b500690565b634e487b7160e01b600052601160045260246000fd5b634e487b7160e01b600052601260045260246000fd5b634e487b7160e01b600052603260045260246000fd5b634e487b7160e01b600052604160045260246000fdfea2646970667358221220afc2dfe118092872e43396e45611e3ac9d2cdbd66764963f685a6aa8272ee20e64736f6c63430008060033",
  "linkReferences": {},
  "deployedLinkReferences": {}
}